{
  "_format": "hh-sol-artifact-1",
  "contractName": "DarkPool",
  "sourceName": "contracts/DarkPool.sol",
  "abi": [
    {
      "inputs": [
        {
          "internalType": "address",
          "name": "_depositVerifier",
          "type": "address"
        },
        {
          "internalType": "address",
          "name": "_withdrawVerifier",
          "type": "address"
        },
        {
          "internalType": "address",
          "name": "_transferVerifier",
          "type": "address"
        },
        {
          "internalType": "address",
          "name": "_joinVerifier",
          "type": "address"
        },
        {
          "internalType": "address",
          "name": "_splitVerifier",
          "type": "address"
        },
        {
          "internalType": "address",
          "name": "_publicClaimVerifier",
          "type": "address"
        },
        {
          "internalType": "address",
          "name": "_gasPaymentVerifier",
          "type": "address"
        },
        {
          "internalType": "address",
          "name": "_rewardPool",
          "type": "address"
        },
        {
          "internalType": "uint256",
          "name": "_compliancePkX",
          "type": "uint256"
        },
        {
          "internalType": "uint256",
          "name": "_compliancePkY",
          "type": "uint256"
        },
        {
          "internalType": "address",
          "name": "_admin",
          "type": "address"
        }
      ],
      "stateMutability": "nonpayable",
      "type": "constructor"
    },
    {
      "inputs": [],
      "name": "AccessControlBadConfirmation",
      "type": "error"
    },
    {
      "inputs": [
        {
          "internalType": "address",
          "name": "account",
          "type": "address"
        },
        {
          "internalType": "bytes32",
          "name": "neededRole",
          "type": "bytes32"
        }
      ],
      "name": "AccessControlUnauthorizedAccount",
      "type": "error"
    },
    {
      "inputs": [],
      "name": "EnforcedPause",
      "type": "error"
    },
    {
      "inputs": [],
      "name": "ExpectedPause",
      "type": "error"
    },
    {
      "inputs": [],
      "name": "InvalidComplianceKey",
      "type": "error"
    },
    {
      "inputs": [],
      "name": "InvalidInputsLength",
      "type": "error"
    },
    {
      "inputs": [],
      "name": "InvalidProof",
      "type": "error"
    },
    {
      "inputs": [],
      "name": "InvalidRoot",
      "type": "error"
    },
    {
      "inputs": [],
      "name": "LeafIndexOutOfBounds",
      "type": "error"
    },
    {
      "inputs": [],
      "name": "MemoCollision",
      "type": "error"
    },
    {
      "inputs": [],
      "name": "MemoInvalid",
      "type": "error"
    },
    {
      "inputs": [],
      "name": "MemoSpent",
      "type": "error"
    },
    {
      "inputs": [],
      "name": "NullifierAlreadySpent",
      "type": "error"
    },
    {
      "inputs": [],
      "name": "ReentrancyGuardReentrantCall",
      "type": "error"
    },
    {
      "inputs": [
        {
          "internalType": "address",
          "name": "token",
          "type": "address"
        }
      ],
      "name": "SafeERC20FailedOperation",
      "type": "error"
    },
    {
      "inputs": [],
      "name": "TimestampInvalid",
      "type": "error"
    },
    {
      "inputs": [],
      "name": "TreeIsFull",
      "type": "error"
    },
    {
      "inputs": [],
      "name": "ValueZero",
      "type": "error"
    },
    {
      "inputs": [],
      "name": "ZeroAddress",
      "type": "error"
    },
    {
      "anonymous": false,
      "inputs": [
        {
          "indexed": true,
          "internalType": "address",
          "name": "depositor",
          "type": "address"
        },
        {
          "indexed": true,
          "internalType": "address",
          "name": "asset",
          "type": "address"
        },
        {
          "indexed": false,
          "internalType": "uint256",
          "name": "value",
          "type": "uint256"
        }
      ],
      "name": "Deposited",
      "type": "event"
    },
    {
      "anonymous": false,
      "inputs": [
        {
          "indexed": true,
          "internalType": "bytes32",
          "name": "nullifierHash",
          "type": "bytes32"
        },
        {
          "indexed": true,
          "internalType": "address",
          "name": "relayer",
          "type": "address"
        },
        {
          "indexed": true,
          "internalType": "address",
          "name": "asset",
          "type": "address"
        },
        {
          "indexed": false,
          "internalType": "uint256",
          "name": "amount",
          "type": "uint256"
        },
        {
          "indexed": false,
          "internalType": "bytes32",
          "name": "executionHash",
          "type": "bytes32"
        }
      ],
      "name": "GasPaymentProcessed",
      "type": "event"
    },
    {
      "anonymous": false,
      "inputs": [
        {
          "indexed": true,
          "internalType": "uint256",
          "name": "leafIndex",
          "type": "uint256"
        },
        {
          "indexed": false,
          "internalType": "bytes32",
          "name": "leaf",
          "type": "bytes32"
        },
        {
          "indexed": false,
          "internalType": "bytes32",
          "name": "newRoot",
          "type": "bytes32"
        }
      ],
      "name": "LeafInserted",
      "type": "event"
    },
    {
      "anonymous": false,
      "inputs": [
        {
          "indexed": true,
          "internalType": "uint256",
          "name": "leafIndex",
          "type": "uint256"
        },
        {
          "indexed": true,
          "internalType": "bytes32",
          "name": "commitment",
          "type": "bytes32"
        },
        {
          "indexed": false,
          "internalType": "uint256",
          "name": "ephemeralPK_x",
          "type": "uint256"
        },
        {
          "indexed": false,
          "internalType": "uint256",
          "name": "ephemeralPK_y",
          "type": "uint256"
        },
        {
          "indexed": false,
          "internalType": "bytes32[7]",
          "name": "packedCiphertext",
          "type": "bytes32[7]"
        }
      ],
      "name": "NewNote",
      "type": "event"
    },
    {
      "anonymous": false,
      "inputs": [
        {
          "indexed": true,
          "internalType": "uint256",
          "name": "leafIndex",
          "type": "uint256"
        },
        {
          "indexed": true,
          "internalType": "bytes32",
          "name": "commitment",
          "type": "bytes32"
        },
        {
          "indexed": true,
          "internalType": "uint256",
          "name": "recipientP_x",
          "type": "uint256"
        },
        {
          "indexed": false,
          "internalType": "uint256",
          "name": "ephemeralPK_x",
          "type": "uint256"
        },
        {
          "indexed": false,
          "internalType": "uint256",
          "name": "ephemeralPK_y",
          "type": "uint256"
        },
        {
          "indexed": false,
          "internalType": "bytes32[7]",
          "name": "packedCiphertext",
          "type": "bytes32[7]"
        },
        {
          "indexed": false,
          "internalType": "uint256",
          "name": "intermediateBob_x",
          "type": "uint256"
        },
        {
          "indexed": false,
          "internalType": "uint256",
          "name": "intermediateBob_y",
          "type": "uint256"
        },
        {
          "indexed": false,
          "internalType": "uint256",
          "name": "intermediateCompliance_x",
          "type": "uint256"
        },
        {
          "indexed": false,
          "internalType": "uint256",
          "name": "intermediateCompliance_y",
          "type": "uint256"
        }
      ],
      "name": "NewPrivateMemo",
      "type": "event"
    },
    {
      "anonymous": false,
      "inputs": [
        {
          "indexed": true,
          "internalType": "bytes32",
          "name": "memoId",
          "type": "bytes32"
        },
        {
          "indexed": true,
          "internalType": "uint256",
          "name": "ownerX",
          "type": "uint256"
        },
        {
          "indexed": false,
          "internalType": "uint256",
          "name": "ownerY",
          "type": "uint256"
        },
        {
          "indexed": false,
          "internalType": "address",
          "name": "asset",
          "type": "address"
        },
        {
          "indexed": false,
          "internalType": "uint256",
          "name": "value",
          "type": "uint256"
        },
        {
          "indexed": false,
          "internalType": "uint256",
          "name": "timelock",
          "type": "uint256"
        },
        {
          "indexed": false,
          "internalType": "uint256",
          "name": "salt",
          "type": "uint256"
        }
      ],
      "name": "NewPublicMemo",
      "type": "event"
    },
    {
      "anonymous": false,
      "inputs": [
        {
          "indexed": true,
          "internalType": "bytes32",
          "name": "nullifierHash",
          "type": "bytes32"
        }
      ],
      "name": "NullifierSpent",
      "type": "event"
    },
    {
      "anonymous": false,
      "inputs": [
        {
          "indexed": false,
          "internalType": "address",
          "name": "account",
          "type": "address"
        }
      ],
      "name": "Paused",
      "type": "event"
    },
    {
      "anonymous": false,
      "inputs": [
        {
          "indexed": true,
          "internalType": "bytes32",
          "name": "memoId",
          "type": "bytes32"
        }
      ],
      "name": "PublicMemoSpent",
      "type": "event"
    },
    {
      "anonymous": false,
      "inputs": [
        {
          "indexed": true,
          "internalType": "bytes32",
          "name": "role",
          "type": "bytes32"
        },
        {
          "indexed": true,
          "internalType": "bytes32",
          "name": "previousAdminRole",
          "type": "bytes32"
        },
        {
          "indexed": true,
          "internalType": "bytes32",
          "name": "newAdminRole",
          "type": "bytes32"
        }
      ],
      "name": "RoleAdminChanged",
      "type": "event"
    },
    {
      "anonymous": false,
      "inputs": [
        {
          "indexed": true,
          "internalType": "bytes32",
          "name": "role",
          "type": "bytes32"
        },
        {
          "indexed": true,
          "internalType": "address",
          "name": "account",
          "type": "address"
        },
        {
          "indexed": true,
          "internalType": "address",
          "name": "sender",
          "type": "address"
        }
      ],
      "name": "RoleGranted",
      "type": "event"
    },
    {
      "anonymous": false,
      "inputs": [
        {
          "indexed": true,
          "internalType": "bytes32",
          "name": "role",
          "type": "bytes32"
        },
        {
          "indexed": true,
          "internalType": "address",
          "name": "account",
          "type": "address"
        },
        {
          "indexed": true,
          "internalType": "address",
          "name": "sender",
          "type": "address"
        }
      ],
      "name": "RoleRevoked",
      "type": "event"
    },
    {
      "anonymous": false,
      "inputs": [
        {
          "indexed": true,
          "internalType": "uint256",
          "name": "rootIndex",
          "type": "uint256"
        },
        {
          "indexed": false,
          "internalType": "bytes32",
          "name": "root",
          "type": "bytes32"
        }
      ],
      "name": "RootSaved",
      "type": "event"
    },
    {
      "anonymous": false,
      "inputs": [
        {
          "indexed": false,
          "internalType": "address",
          "name": "account",
          "type": "address"
        }
      ],
      "name": "Unpaused",
      "type": "event"
    },
    {
      "anonymous": false,
      "inputs": [
        {
          "indexed": true,
          "internalType": "bytes32",
          "name": "nullifierHash",
          "type": "bytes32"
        },
        {
          "indexed": true,
          "internalType": "address",
          "name": "recipient",
          "type": "address"
        },
        {
          "indexed": false,
          "internalType": "address",
          "name": "relayer",
          "type": "address"
        }
      ],
      "name": "Withdrawal",
      "type": "event"
    },
    {
      "inputs": [],
      "name": "COMPLIANCE_PK_X",
      "outputs": [
        {
          "internalType": "uint256",
          "name": "",
          "type": "uint256"
        }
      ],
      "stateMutability": "view",
      "type": "function"
    },
    {
      "inputs": [],
      "name": "COMPLIANCE_PK_Y",
      "outputs": [
        {
          "internalType": "uint256",
          "name": "",
          "type": "uint256"
        }
      ],
      "stateMutability": "view",
      "type": "function"
    },
    {
      "inputs": [],
      "name": "DEFAULT_ADMIN_ROLE",
      "outputs": [
        {
          "internalType": "bytes32",
          "name": "",
          "type": "bytes32"
        }
      ],
      "stateMutability": "view",
      "type": "function"
    },
    {
      "inputs": [],
      "name": "PAUSER_ROLE",
      "outputs": [
        {
          "internalType": "bytes32",
          "name": "",
          "type": "bytes32"
        }
      ],
      "stateMutability": "view",
      "type": "function"
    },
    {
      "inputs": [
        {
          "internalType": "bytes",
          "name": "_proof",
          "type": "bytes"
        },
        {
          "internalType": "bytes32[]",
          "name": "_publicInputs",
          "type": "bytes32[]"
        }
      ],
      "name": "deposit",
      "outputs": [],
      "stateMutability": "nonpayable",
      "type": "function"
    },
    {
      "inputs": [],
      "name": "depositVerifier",
      "outputs": [
        {
          "internalType": "contract HonkVerifier",
          "name": "",
          "type": "address"
        }
      ],
      "stateMutability": "view",
      "type": "function"
    },
    {
      "inputs": [],
      "name": "gasPaymentVerifier",
      "outputs": [
        {
          "internalType": "contract HonkVerifier",
          "name": "",
          "type": "address"
        }
      ],
      "stateMutability": "view",
      "type": "function"
    },
    {
      "inputs": [],
      "name": "getCurrentRoot",
      "outputs": [
        {
          "internalType": "bytes32",
          "name": "",
          "type": "bytes32"
        }
      ],
      "stateMutability": "view",
      "type": "function"
    },
    {
      "inputs": [
        {
          "internalType": "uint256",
          "name": "_leafIndex",
          "type": "uint256"
        }
      ],
      "name": "getMerklePath",
      "outputs": [
        {
          "internalType": "bytes32[32]",
          "name": "",
          "type": "bytes32[32]"
        }
      ],
      "stateMutability": "view",
      "type": "function"
    },
    {
      "inputs": [],
      "name": "getNextLeafIndex",
      "outputs": [
        {
          "internalType": "uint256",
          "name": "",
          "type": "uint256"
        }
      ],
      "stateMutability": "view",
      "type": "function"
    },
    {
      "inputs": [
        {
          "internalType": "bytes32",
          "name": "role",
          "type": "bytes32"
        }
      ],
      "name": "getRoleAdmin",
      "outputs": [
        {
          "internalType": "bytes32",
          "name": "",
          "type": "bytes32"
        }
      ],
      "stateMutability": "view",
      "type": "function"
    },
    {
      "inputs": [
        {
          "internalType": "uint256",
          "name": "treeLevel",
          "type": "uint256"
        },
        {
          "internalType": "uint256",
          "name": "positionAtLevel",
          "type": "uint256"
        }
      ],
      "name": "getSubtreeWithProof",
      "outputs": [
        {
          "internalType": "bytes32[]",
          "name": "proof",
          "type": "bytes32[]"
        },
        {
          "internalType": "bytes32[]",
          "name": "leafs",
          "type": "bytes32[]"
        }
      ],
      "stateMutability": "view",
      "type": "function"
    },
    {
      "inputs": [
        {
          "internalType": "bytes32",
          "name": "role",
          "type": "bytes32"
        },
        {
          "internalType": "address",
          "name": "account",
          "type": "address"
        }
      ],
      "name": "grantRole",
      "outputs": [],
      "stateMutability": "nonpayable",
      "type": "function"
    },
    {
      "inputs": [
        {
          "internalType": "bytes32",
          "name": "role",
          "type": "bytes32"
        },
        {
          "internalType": "address",
          "name": "account",
          "type": "address"
        }
      ],
      "name": "hasRole",
      "outputs": [
        {
          "internalType": "bool",
          "name": "",
          "type": "bool"
        }
      ],
      "stateMutability": "view",
      "type": "function"
    },
    {
      "inputs": [
        {
          "internalType": "bytes32",
          "name": "_root",
          "type": "bytes32"
        }
      ],
      "name": "isKnownRoot",
      "outputs": [
        {
          "internalType": "bool",
          "name": "",
          "type": "bool"
        }
      ],
      "stateMutability": "view",
      "type": "function"
    },
    {
      "inputs": [
        {
          "internalType": "bytes32",
          "name": "",
          "type": "bytes32"
        }
      ],
      "name": "isNullifierSpent",
      "outputs": [
        {
          "internalType": "bool",
          "name": "",
          "type": "bool"
        }
      ],
      "stateMutability": "view",
      "type": "function"
    },
    {
      "inputs": [
        {
          "internalType": "bytes32",
          "name": "",
          "type": "bytes32"
        }
      ],
      "name": "isPublicMemoSpent",
      "outputs": [
        {
          "internalType": "bool",
          "name": "",
          "type": "bool"
        }
      ],
      "stateMutability": "view",
      "type": "function"
    },
    {
      "inputs": [
        {
          "internalType": "bytes32",
          "name": "",
          "type": "bytes32"
        }
      ],
      "name": "isValidPublicMemo",
      "outputs": [
        {
          "internalType": "bool",
          "name": "",
          "type": "bool"
        }
      ],
      "stateMutability": "view",
      "type": "function"
    },
    {
      "inputs": [
        {
          "internalType": "bytes",
          "name": "_proof",
          "type": "bytes"
        },
        {
          "internalType": "bytes32[]",
          "name": "_publicInputs",
          "type": "bytes32[]"
        }
      ],
      "name": "join",
      "outputs": [],
      "stateMutability": "nonpayable",
      "type": "function"
    },
    {
      "inputs": [],
      "name": "joinVerifier",
      "outputs": [
        {
          "internalType": "contract HonkVerifier",
          "name": "",
          "type": "address"
        }
      ],
      "stateMutability": "view",
      "type": "function"
    },
    {
      "inputs": [],
      "name": "pause",
      "outputs": [],
      "stateMutability": "nonpayable",
      "type": "function"
    },
    {
      "inputs": [],
      "name": "paused",
      "outputs": [
        {
          "internalType": "bool",
          "name": "",
          "type": "bool"
        }
      ],
      "stateMutability": "view",
      "type": "function"
    },
    {
      "inputs": [
        {
          "internalType": "bytes",
          "name": "_proof",
          "type": "bytes"
        },
        {
          "internalType": "bytes32[]",
          "name": "_publicInputs",
          "type": "bytes32[]"
        }
      ],
      "name": "payRelayer",
      "outputs": [],
      "stateMutability": "nonpayable",
      "type": "function"
    },
    {
      "inputs": [
        {
          "internalType": "bytes",
          "name": "_proof",
          "type": "bytes"
        },
        {
          "internalType": "bytes32[]",
          "name": "_publicInputs",
          "type": "bytes32[]"
        }
      ],
      "name": "privateTransfer",
      "outputs": [],
      "stateMutability": "nonpayable",
      "type": "function"
    },
    {
      "inputs": [
        {
          "internalType": "bytes",
          "name": "_proof",
          "type": "bytes"
        },
        {
          "internalType": "bytes32[]",
          "name": "_publicInputs",
          "type": "bytes32[]"
        }
      ],
      "name": "publicClaim",
      "outputs": [],
      "stateMutability": "nonpayable",
      "type": "function"
    },
    {
      "inputs": [],
      "name": "publicClaimVerifier",
      "outputs": [
        {
          "internalType": "contract HonkVerifier",
          "name": "",
          "type": "address"
        }
      ],
      "stateMutability": "view",
      "type": "function"
    },
    {
      "inputs": [
        {
          "internalType": "uint256",
          "name": "_ownerX",
          "type": "uint256"
        },
        {
          "internalType": "uint256",
          "name": "_ownerY",
          "type": "uint256"
        },
        {
          "internalType": "address",
          "name": "_asset",
          "type": "address"
        },
        {
          "internalType": "uint256",
          "name": "_value",
          "type": "uint256"
        },
        {
          "internalType": "uint256",
          "name": "_timelock",
          "type": "uint256"
        },
        {
          "internalType": "uint256",
          "name": "_salt",
          "type": "uint256"
        }
      ],
      "name": "publicTransfer",
      "outputs": [],
      "stateMutability": "nonpayable",
      "type": "function"
    },
    {
      "inputs": [
        {
          "internalType": "bytes32",
          "name": "role",
          "type": "bytes32"
        },
        {
          "internalType": "address",
          "name": "callerConfirmation",
          "type": "address"
        }
      ],
      "name": "renounceRole",
      "outputs": [],
      "stateMutability": "nonpayable",
      "type": "function"
    },
    {
      "inputs": [
        {
          "internalType": "bytes32",
          "name": "role",
          "type": "bytes32"
        },
        {
          "internalType": "address",
          "name": "account",
          "type": "address"
        }
      ],
      "name": "revokeRole",
      "outputs": [],
      "stateMutability": "nonpayable",
      "type": "function"
    },
    {
      "inputs": [],
      "name": "rewardPool",
      "outputs": [
        {
          "internalType": "contract NoxRewardPool",
          "name": "",
          "type": "address"
        }
      ],
      "stateMutability": "view",
      "type": "function"
    },
    {
      "inputs": [
        {
          "internalType": "bytes",
          "name": "_proof",
          "type": "bytes"
        },
        {
          "internalType": "bytes32[]",
          "name": "_publicInputs",
          "type": "bytes32[]"
        }
      ],
      "name": "split",
      "outputs": [],
      "stateMutability": "nonpayable",
      "type": "function"
    },
    {
      "inputs": [],
      "name": "splitVerifier",
      "outputs": [
        {
          "internalType": "contract HonkVerifier",
          "name": "",
          "type": "address"
        }
      ],
      "stateMutability": "view",
      "type": "function"
    },
    {
      "inputs": [
        {
          "internalType": "bytes4",
          "name": "interfaceId",
          "type": "bytes4"
        }
      ],
      "name": "supportsInterface",
      "outputs": [
        {
          "internalType": "bool",
          "name": "",
          "type": "bool"
        }
      ],
      "stateMutability": "view",
      "type": "function"
    },
    {
      "inputs": [],
      "name": "transferVerifier",
      "outputs": [
        {
          "internalType": "contract HonkVerifier",
          "name": "",
          "type": "address"
        }
      ],
      "stateMutability": "view",
      "type": "function"
    },
    {
      "inputs": [],
      "name": "unpause",
      "outputs": [],
      "stateMutability": "nonpayable",
      "type": "function"
    },
    {
      "inputs": [
        {
          "internalType": "bytes",
          "name": "_proof",
          "type": "bytes"
        },
        {
          "internalType": "bytes32[]",
          "name": "_publicInputs",
          "type": "bytes32[]"
        }
      ],
      "name": "withdraw",
      "outputs": [],
      "stateMutability": "nonpayable",
      "type": "function"
    },
    {
      "inputs": [],
      "name": "withdrawVerifier",
      "outputs": [
        {
          "internalType": "contract HonkVerifier",
          "name": "",
          "type": "address"
        }
      ],
      "stateMutability": "view",
      "type": "function"
    }
  ],
  "bytecode": "0x6101c060405234801561001157600080fd5b5060405161373538038061373583398101604081905261003091610535565b60016002556001600160a01b038b1661005c5760405163d92e233d60e01b815260040160405180910390fd5b6001600160a01b038a166100835760405163d92e233d60e01b815260040160405180910390fd5b6001600160a01b0389166100aa5760405163d92e233d60e01b815260040160405180910390fd5b6001600160a01b0388166100d15760405163d92e233d60e01b815260040160405180910390fd5b6001600160a01b0387166100f85760405163d92e233d60e01b815260040160405180910390fd5b6001600160a01b03861661011f5760405163d92e233d60e01b815260040160405180910390fd5b6001600160a01b0385166101465760405163d92e233d60e01b815260040160405180910390fd5b6001600160a01b03841661016d5760405163d92e233d60e01b815260040160405180910390fd5b6001600160a01b0381166101945760405163d92e233d60e01b815260040160405180910390fd5b61019f600082610230565b506101ca7f65d7a28e3265b37a6474929f336521b332c1681b933f6cb9f3376673440d862a82610230565b506001600160a01b03808c1660c0528a811660e05289811661010052888116610120528781166101405286811661016052858116608052841660a0526101808390526101a08290526102206003602060646102dc565b505050505050505050505061060a565b6000828152602081815260408083206001600160a01b038516845290915281205460ff166102d2576000838152602081815260408083206001600160a01b03861684529091529020805460ff1916600117905561028a3390565b6001600160a01b0316826001600160a01b0316847f2f8788117e7eff1d82e926ec794901d17c78024a50270940304540a733656f0d60405160405180910390a45060016102d6565b5060005b92915050565b60008263ffffffff161180156102f9575060208263ffffffff1611155b6103495760405162461bcd60e51b815260206004820152601c60248201527f4d65726b6c65547265654c69623a20496e76616c696420646570746800000000604482015260640160405180910390fd5b63ffffffff80831680855590821660018501556001600160401b03811115610373576103736105f4565b6040519080825280602002602001820160405280156103a657816020015b60608152602001906001900390816103915790505b5080516103bd916002860191602090910190610422565b508063ffffffff166001600160401b038111156103dc576103dc6105f4565b604051908082528060200260200182016040528015610405578160200160208202803683370190505b50805161041c91600386019160209091019061047f565b50505050565b82805482825590600052602060002090810192821561046f579160200282015b8281111561046f578251805161045f91849160209091019061047f565b5091602001919060010190610442565b5061047b9291506104c6565b5090565b8280548282559060005260206000209081019282156104ba579160200282015b828111156104ba57825182559160200191906001019061049f565b5061047b9291506104e3565b8082111561047b5760006104da82826104f8565b506001016104c6565b5b8082111561047b57600081556001016104e4565b508054600082559060005260206000209081019061051691906104e3565b50565b80516001600160a01b038116811461053057600080fd5b919050565b60008060008060008060008060008060006101608c8e03121561055757600080fd5b6105608c610519565b9a5061056e60208d01610519565b995061057c60408d01610519565b985061058a60608d01610519565b975061059860808d01610519565b96506105a660a08d01610519565b95506105b460c08d01610519565b94506105c260e08d01610519565b6101008d01516101208e0151919550935091506105e26101408d01610519565b90509295989b509295989b9093969950565b634e487b7160e01b600052604160045260246000fd5b60805160a05160c05160e05161010051610120516101405161016051610180516101a0516130636106d26000396000818161049101526119fd01526000818161040901526119d301526000818161031b0152610fe901526000818161027901526114300152600081816103bf01526115f201526000818161046a0152610a3f01526000818161043001526111be0152600081816102a0015261064e01526000818161034201528181610d780152610db40152600081816102110152610c0f01526130636000f3fe608060405234801561001057600080fd5b50600436106101b75760003560e01c806301ffc9a7146101bc5780631338df64146101e457806318a43314146101f95780632046787f1461020c578063248a9ca31461024057806324fcf1311461026157806325373b921461027457806326120c881461029b5780632f2ff15d146102c257806336568abe146102d55780633f4ba83a146102e85780634981154e146102f057806350e9b925146103035780635c975abb1461030b57806361dc02b11461031657806366666aa91461033d57806367843a5b146103645780636d9833e3146103775780636e4d65171461039a5780637075656c146103ba578063805648ee146103e15780638270482d146103f45780638456cb59146103fc57806385f59ec314610404578063864eb1641461042b5780638c776c70146104525780638daed528146104655780638f0a6f2e1461048c57806391d14854146104b3578063a217fddf146104c6578063a38fc159146104ce578063a9c7c11b146104e1578063cd0ec18b14610504578063d547741f14610525578063d5a4e32514610538578063e63ab1e91461055b578063ec3a260914610570575b600080fd5b6101cf6101ca366004612b29565b610593565b60405190151581526020015b60405180910390f35b6101f76101f2366004612b5a565b6105ca565b005b6101f7610207366004612b5a565b610954565b6102337f000000000000000000000000000000000000000000000000000000000000000081565b6040516101db9190612c29565b61025361024e366004612c3d565b610b1e565b6040519081526020016101db565b6101f761026f366004612b5a565b610b33565b6102337f000000000000000000000000000000000000000000000000000000000000000081565b6102337f000000000000000000000000000000000000000000000000000000000000000081565b6101f76102d0366004612c6d565b610e84565b6101f76102e3366004612c6d565b610ea0565b6101f7610ed8565b6101f76102fe366004612b5a565b610eee565b600854610253565b60015460ff166101cf565b6102337f000000000000000000000000000000000000000000000000000000000000000081565b6102337f000000000000000000000000000000000000000000000000000000000000000081565b6101f7610372366004612b5a565b6110dd565b6101cf610385366004612c3d565b60009081526009602052604090205460ff1690565b6103ad6103a8366004612c3d565b61135b565b6040516101db9190612c99565b6102337f000000000000000000000000000000000000000000000000000000000000000081565b6101f76103ef366004612b5a565b61136e565b6102536114ff565b6101f7611510565b6102537f000000000000000000000000000000000000000000000000000000000000000081565b6102337f000000000000000000000000000000000000000000000000000000000000000081565b6101f7610460366004612b5a565b611530565b6102337f000000000000000000000000000000000000000000000000000000000000000081565b6102537f000000000000000000000000000000000000000000000000000000000000000081565b6101cf6104c1366004612c6d565b6116c7565b610253600081565b6101f76104dc366004612ccb565b6116f0565b6101cf6104ef366004612c3d565b600b6020526000908152604090205460ff1681565b610517610512366004612d1c565b61194d565b6040516101db929190612d7a565b6101f7610533366004612c6d565b611967565b6101cf610546366004612c3d565b600a6020526000908152604090205460ff1681565b61025360008051602061300e83398151915281565b6101cf61057e366004612c3d565b600c6020526000908152604090205460ff1681565b60006001600160e01b03198216637965db0b60e01b14806105c457506301ffc9a760e01b6001600160e01b03198316145b92915050565b6105d2611983565b6105da6119ab565b600d81146105fb576040516345d247b360e01b815260040160405180910390fd5b6106378282600081811061061157610611612da8565b905060200201358383600181811061062b5761062b612da8565b905060200201356119d1565b604051633a94343960e21b81526001600160a01b037f0000000000000000000000000000000000000000000000000000000000000000169063ea50d0e490610689908790879087908790600401612dbe565b602060405180830381865afa1580156106a6573d6000803e3d6000fd5b505050506040513d601f19601f820116820180604052508101906106ca9190612e22565b6106e7576040516309bde33960e01b815260040160405180910390fd5b60408051600780825261010082019092526000916020820160e080368337019050509050610713612aec565b60005b6007811015610791576000858561072e846006612e70565b81811061073d5761073d612da8565b9050602002013590506107528160001c611a42565b84838151811061076457610764612da8565b6020026020010181815250508083836007811061078357610783612da8565b602002015250600101610716565b50600061081273__$f0311bf91ff4d586abde6a0fe66af225eb$__6340ec6e49856040518263ffffffff1660e01b81526004016107ce9190612e83565b602060405180830381865af41580156107eb573d6000803e3d6000fd5b505050506040513d601f19601f8201168201806040525081019061080f9190612ec6565b90565b90506000610821600383611a51565b905060008686600481811061083857610838612da8565b9050602002013560001c905060008787600581811061085957610859612da8565b9050602002013560001c90508160000361088657604051630b13e60d60e31b815260040160405180910390fd5b61089b6001600160a01b038216333085611d5b565b6040518281526001600160a01b0382169033907f8752a472e571a816aea92eec8dae9baf628e840f4929fbcc2d155e6233ff68a79060200160405180910390a38383600080516020612fee8339815191528a8a60028181106108ff576108ff612da8565b9050602002013560001c8b8b600381811061091c5761091c612da8565b9050602002013560001c8960405161093693929190612f02565b60405180910390a350505050505061094e6001600255565b50505050565b61095c611983565b6109646119ab565b601f8114610985576040516345d247b360e01b815260040160405180910390fd5b600960008383828161099957610999612da8565b602090810292909201358352508101919091526040016000205460ff166109d35760405163504570e360e01b815260040160405180910390fd5b6109f8828260018181106109e9576109e9612da8565b9050602002013560001c611dc2565b610a2882826002818110610a0e57610a0e612da8565b905060200201358383600381811061062b5761062b612da8565b604051633a94343960e21b81526001600160a01b037f0000000000000000000000000000000000000000000000000000000000000000169063ea50d0e490610a7a908790879087908790600401612dbe565b602060405180830381865afa158015610a97573d6000803e3d6000fd5b505050506040513d601f19601f82011682018060405250810190610abb9190612e22565b610ad8576040516309bde33960e01b815260040160405180910390fd5b610afa82826008818110610aee57610aee612da8565b90506020020135611dee565b610b048282611e61565b610b14828260186016601761206b565b61094e6001600255565b60009081526020819052604090206001015490565b610b3b611983565b610b436119ab565b60128114610b64576040516345d247b360e01b815260040160405180910390fd5b6009600083838281610b7857610b78612da8565b602090810292909201358352508101919091526040016000205460ff16610bb25760405163504570e360e01b815260040160405180910390fd5b610bc8828260018181106109e9576109e9612da8565b610bf882826006818110610bde57610bde612da8565b905060200201358383600781811061062b5761062b612da8565b604051633a94343960e21b81526001600160a01b037f0000000000000000000000000000000000000000000000000000000000000000169063ea50d0e490610c4a908790879087908790600401612dbe565b602060405180830381865afa158015610c67573d6000803e3d6000fd5b505050506040513d601f19601f82011682018060405250810190610c8b9190612e22565b610ca8576040516309bde33960e01b815260040160405180910390fd5b600082826008818110610cbd57610cbd612da8565b905060200201359050610ccf81611dee565b610cdf8383600b6009600a61206b565b600083836002818110610cf457610cf4612da8565b9050602002013560001c9050600084846003818110610d1557610d15612da8565b9050602002013560001c9050600085856004818110610d3657610d36612da8565b9050602002013560001c9050600086866005818110610d5757610d57612da8565b9050602002013590506000841115610e1e57610d9d6001600160a01b0384167f0000000000000000000000000000000000000000000000000000000000000000866121ce565b604051634bd68e6760e11b81526001600160a01b037f000000000000000000000000000000000000000000000000000000000000000016906397ad1cce90610deb9086908890600401612f26565b600060405180830381600087803b158015610e0557600080fd5b505af1158015610e19573d6000803e3d6000fd5b505050505b826001600160a01b0316826001600160a01b0316867f93490fb83ee8f6092bc10608d0030590b3ec30a3ef51bccf4af4a45ebcbd5e768785604051610e6d929190918252602082015260400190565b60405180910390a4505050505061094e6001600255565b610e8d82610b1e565b610e9681612260565b61094e838361226a565b6001600160a01b0381163314610ec95760405163334bd91960e11b815260040160405180910390fd5b610ed382826122fc565b505050565b6000610ee381612260565b610eeb612367565b50565b610ef6611983565b610efe6119ab565b600d8114610f1f576040516345d247b360e01b815260040160405180910390fd5b600082826000818110610f3457610f34612da8565b602090810292909201356000818152600b9093526040909220549192505060ff16610f7257604051634e057d6d60e01b815260040160405180910390fd5b6000818152600c602052604090205460ff1615610fa2576040516323fec3a360e21b815260040160405180910390fd5b610fd283836001818110610fb857610fb8612da8565b905060200201358484600281811061062b5761062b612da8565b604051633a94343960e21b81526001600160a01b037f0000000000000000000000000000000000000000000000000000000000000000169063ea50d0e490611024908890889088908890600401612dbe565b602060405180830381865afa158015611041573d6000803e3d6000fd5b505050506040513d601f19601f820116820180604052508101906110659190612e22565b611082576040516309bde33960e01b815260040160405180910390fd5b6000818152600c6020526040808220805460ff191660011790555182917f142b563796c862a1fb294596318cb4ce9492eed8f1b25bbf2ea2aa96d9f05bb391a26110d2838360056003600461206b565b5061094e6001600255565b6110e5611983565b6110ed6119ab565b6012811461110e576040516345d247b360e01b815260040160405180910390fd5b60008282600281811061112357611123612da8565b60209081029290920135600081815260099093526040909220549192505060ff166111615760405163504570e360e01b815260040160405180910390fd5b611177838360038181106109e9576109e9612da8565b6111a78383600581811061118d5761118d612da8565b905060200201358484600681811061062b5761062b612da8565b604051633a94343960e21b81526001600160a01b037f0000000000000000000000000000000000000000000000000000000000000000169063ea50d0e4906111f9908890889088908890600401612dbe565b602060405180830381865afa158015611216573d6000803e3d6000fd5b505050506040513d601f19601f8201168201806040525081019061123a9190612e22565b611257576040516309bde33960e01b815260040160405180910390fd5b60008383600781811061126c5761126c612da8565b90506020020135905061127e81611dee565b61128e8484600a6008600961206b565b6000848460008181106112a3576112a3612da8565b9050602002013560001c90506000858560018181106112c4576112c4612da8565b9050602002013560001c90506000868660118181106112e5576112e5612da8565b6020029190910135915050821561130a5761130a6001600160a01b03821683856123b3565b816001600160a01b0316847f5d5a620a50bf9a970a972a9a4b82f1247b0a2902b92f8bfedfc88b284b043d55336040516113449190612c29565b60405180910390a3505050505061094e6001600255565b611363612b0a565b6105c46003836123d9565b611376611983565b61137e6119ab565b6018811461139f576040516345d247b360e01b815260040160405180910390fd5b60096000838382816113b3576113b3612da8565b602090810292909201358352508101919091526040016000205460ff166113ed5760405163504570e360e01b815260040160405180910390fd5b611403828260018181106109e9576109e9612da8565b61141982826002818110610a0e57610a0e612da8565b604051633a94343960e21b81526001600160a01b037f0000000000000000000000000000000000000000000000000000000000000000169063ea50d0e49061146b908790879087908790600401612dbe565b602060405180830381865afa158015611488573d6000803e3d6000fd5b505050506040513d601f19601f820116820180604052508101906114ac9190612e22565b6114c9576040516309bde33960e01b815260040160405180910390fd5b6114df82826004818110610aee57610aee612da8565b6114ef828260076005600661206b565b610b1482826010600e600f61206b565b600061150b60036124d1565b905090565b60008051602061300e83398151915261152881612260565b610eeb612546565b611538611983565b6115406119ab565b60108114611561576040516345d247b360e01b815260040160405180910390fd5b600960008383828161157557611575612da8565b602090810292909201358352508101919091526040016000205460ff166115af5760405163504570e360e01b815260040160405180910390fd5b6115c5828260018181106109e9576109e9612da8565b6115db82826002818110610a0e57610a0e612da8565b604051633a94343960e21b81526001600160a01b037f0000000000000000000000000000000000000000000000000000000000000000169063ea50d0e49061162d908790879087908790600401612dbe565b602060405180830381865afa15801561164a573d6000803e3d6000fd5b505050506040513d601f19601f8201168201806040525081019061166e9190612e22565b61168b576040516309bde33960e01b815260040160405180910390fd5b6116a182826004818110610aee57610aee612da8565b6116b782826005818110610aee57610aee612da8565b610b14828260086006600761206b565b6000918252602082815260408084206001600160a01b0393909316845291905290205460ff1690565b6116f8611983565b6117006119ab565b8260000361172157604051630b13e60d60e31b815260040160405180910390fd5b60408051600680825260e082019092526000916020820160c08036833701905050905061174d84611a42565b8160008151811061176057611760612da8565b60200260200101818152505061177e856001600160a01b0316611a42565b8160018151811061179157611791612da8565b6020026020010181815250506117a683611a42565b816002815181106117b9576117b9612da8565b6020026020010181815250506117ce87611a42565b816003815181106117e1576117e1612da8565b6020026020010181815250506117f686611a42565b8160048151811061180957611809612da8565b60200260200101818152505061181e82611a42565b8160058151811061183157611831612da8565b602002602001018181525050600061187973__$f0311bf91ff4d586abde6a0fe66af225eb$__6340ec6e49846040518263ffffffff1660e01b81526004016107ce9190612e83565b6000818152600b602052604090205490915060ff16156118ac576040516344cc668160e01b815260040160405180910390fd5b6118c16001600160a01b038716333088611d5b565b6000818152600b6020908152604091829020805460ff1916600117905581518981526001600160a01b038916918101919091529081018690526060810185905260808101849052889082907fd614497fa1306a13c394bd81e213cf25c44d1f4179c4a3fb43bfada2d71a13639060a00160405180910390a350506119456001600255565b505050505050565b60608061195c60038585612581565b915091509250929050565b61197082610b1e565b61197981612260565b61094e83836122fc565b60028054036119a557604051633ee5aeb560e01b815260040160405180910390fd5b60028055565b60015460ff16156119cf5760405163d93c066560e01b815260040160405180910390fd5b565b7f000000000000000000000000000000000000000000000000000000000000000082141580611a2057507f00000000000000000000000000000000000000000000000000000000000000008114155b15611a3e57604051637783c67960e01b815260040160405180910390fd5b5050565b80611a4c8161287c565b919050565b60058201548254600091906001901b8110611a7f57604051633b5ccb4360e21b815260040160405180910390fd5b83600201600081548110611a9557611a95612da8565b6000918252602080832090910180546001810182559083529082200184905560058501805491611ac483612f3f565b909155508390508160005b8654811015611d0b5760008260011890506000886002018381548110611af757611af7612da8565b6000918252602090912001548210611b10576000611b4c565b886002018381548110611b2557611b25612da8565b906000526020600020018281548110611b4057611b40612da8565b90600052602060002001545b905060006001851615611b5f5781611b61565b855b905060006001861615611b745786611b76565b825b905080611b8557819650611c19565b73__$f0311bf91ff4d586abde6a0fe66af225eb$__63055d8d54611ba884611a42565b611bb184611a42565b6040516001600160e01b031960e085901b16815260048101929092526024820152604401602060405180830381865af4158015611bf2573d6000803e3d6000fd5b505050506040513d601f19601f82011682018060405250810190611c169190612ec6565b96505b6000611c26600288612f6e565b8c54909150611c3790600190612f82565b861015611cf95760028c01611c4d876001612e70565b81548110611c5d57611c5d612da8565b6000918252602090912001548110611cb15760028c01611c7e876001612e70565b81548110611c8e57611c8e612da8565b600091825260208083209091018054600181018255908352912001889055611cf9565b8760028d01611cc1886001612e70565b81548110611cd157611cd1612da8565b906000526020600020018281548110611cec57611cec612da8565b6000918252602090912001555b95505060019093019250611acf915050565b50611d1686836128e7565b604080518681526020810184905284917f2d3c13ae449947e04070bf2ac89327dc1fc56f31042172f3c9fdceb8f51c90e6910160405180910390a25090949350505050565b6040516001600160a01b03848116602483015283811660448301526064820183905261094e9186918216906323b872dd906084015b604051602081830303815290604052915060e01b6020820180516001600160e01b0383818316178352505050506129e7565b611dce42610e10612e70565b811115610eeb57604051636283e6bd60e11b815260040160405180910390fd5b6000818152600a602052604090205460ff1615611e1e5760405163b115d85760e01b815260040160405180910390fd5b6000818152600a6020526040808220805460ff191660011790555182917f2d8b76eb247945151bd870d531c84c5420f53e3cb9c0ab3b350f46bb0936209691a250565b60408051600780825261010082019092526000916020820160e080368337019050509050611e8d612aec565b60005b6007811015611f0b5760008585611ea884600b612e70565b818110611eb757611eb7612da8565b905060200201359050611ecc8160001c611a42565b848381518110611ede57611ede612da8565b60200260200101818152505080838360078110611efd57611efd612da8565b602002015250600101611e90565b506000611f4873__$f0311bf91ff4d586abde6a0fe66af225eb$__6340ec6e49856040518263ffffffff1660e01b81526004016107ce9190612e83565b90506000611f57600383611a51565b905085856006818110611f6c57611f6c612da8565b9050602002013560001c82827f4ce375bfc14462ef11ff142db17c333ad6fe548ee9bf7f108bba8d5de9dc9c8089896009818110611fac57611fac612da8565b9050602002013560001c8a8a600a818110611fc957611fc9612da8565b9050602002013560001c888c8c6012818110611fe757611fe7612da8565b9050602002013560001c8d8d601381811061200457612004612da8565b9050602002013560001c8e8e601481811061202157612021612da8565b9050602002013560001c8f8f601581811061203e5761203e612da8565b9050602002013560001c60405161205b9796959493929190612f95565b60405180910390a4505050505050565b60408051600780825261010082019092526000916020820160e080368337019050509050612097612aec565b60005b600781101561211457600088886120b1848a612e70565b8181106120c0576120c0612da8565b9050602002013590506120d58160001c611a42565b8483815181106120e7576120e7612da8565b6020026020010181815250508083836007811061210657612106612da8565b60200201525060010161209a565b50600061215173__$f0311bf91ff4d586abde6a0fe66af225eb$__6340ec6e49856040518263ffffffff1660e01b81526004016107ce9190612e83565b90506000612160600383611a51565b90508181600080516020612fee8339815191528b8b8a81811061218557612185612da8565b9050602002013560001c8c8c8a8181106121a1576121a1612da8565b9050602002013560001c876040516121bb93929190612f02565b60405180910390a3505050505050505050565b6000836001600160a01b031663095ea7b384846040516024016121f2929190612f26565b604051602081830303815290604052915060e01b6020820180516001600160e01b038381831617835250505050905061222b8482612a4f565b61094e5761225684856001600160a01b031663095ea7b3866000604051602401611d90929190612f26565b61094e84826129e7565b610eeb8133612a9e565b600061227683836116c7565b6122f4576000838152602081815260408083206001600160a01b03861684529091529020805460ff191660011790556122ac3390565b6001600160a01b0316826001600160a01b0316847f2f8788117e7eff1d82e926ec794901d17c78024a50270940304540a733656f0d60405160405180910390a45060016105c4565b5060006105c4565b600061230883836116c7565b156122f4576000838152602081815260408083206001600160a01b0386168085529252808320805460ff1916905551339286917ff6391f5c32d9c69d2a47ea670b442974b53935d1edc7fd64eb21e047a839171b9190a45060016105c4565b61236f612ac9565b6001805460ff191690557f5db9ee0a495bf2e6ff9c91a7834c1ba4fdd244a5e8aa4e537bd38aeae4b073aa335b6040516123a99190612c29565b60405180910390a1565b610ed383846001600160a01b031663a9059cbb8585604051602401611d90929190612f26565b6123e1612b0a565b8260050154821061240557604051630834466160e31b815260040160405180910390fd5b8160005b84548110156124c957600082600118905085600201828154811061242f5761242f612da8565b6000918252602090912001548110156124995785600201828154811061245757612457612da8565b90600052602060002001818154811061247257612472612da8565b906000526020600020015484836020811061248f5761248f612da8565b60200201526124b3565b60008483602081106124ad576124ad612da8565b60200201525b6124be600284612f6e565b925050600101612409565b505092915050565b600081600501546000036124e757506000919050565b6000826004015460001461250b57600183600401546125069190612f82565b61251c565b6001836001015461251c9190612f82565b905082600301818154811061253357612533612da8565b9060005260206000200154915050919050565b61254e6119ab565b6001805460ff1916811790557f62e78cea01bee320cd4e420270b5ea74000d11b0c9f74754ebdbfc544b05a2583361239c565b60608084600001548411156125d35760405162461bcd60e51b81526020600482015260136024820152724c6576656c206f7574206f6620626f756e647360681b60448201526064015b60405180910390fd5b84546125e0908590612f82565b6001901b831061262b5760405162461bcd60e51b8152602060048201526016602482015275506f736974696f6e206f7574206f6620626f756e647360501b60448201526064016125ca565b845460009061263b908690612f82565b9050806001600160401b0381111561265557612655612e44565b60405190808252806020026020018201604052801561267e578160200160208202803683370190505b5092508360005b828110156127565760018218600061269d838a612e70565b90508960020181815481106126b4576126b4612da8565b600091825260209091200154821015612725578960020181815481106126dc576126dc612da8565b9060005260206000200182815481106126f7576126f7612da8565b906000526020600020015487848151811061271457612714612da8565b602002602001018181525050612748565b6000801b87848151811061273b5761273b612da8565b6020026020010181815250505b5050600191821c9101612685565b506001861b85871b816001600160401b0381111561277657612776612e44565b60405190808252806020026020018201604052801561279f578160200160208202803683370190505b50945060005b8281101561286f5760006127b98284612e70565b90508a6002016000815481106127d1576127d1612da8565b600091825260209091200154811015612843578a6002016000815481106127fa576127fa612da8565b90600052602060002001818154811061281557612815612da8565b906000526020600020015487838151811061283257612832612da8565b602002602001018181525050612866565b6000801b87838151811061285957612859612da8565b6020026020010181815250505b506001016127a5565b5050505050935093915050565b7f30644e72e131a029b85045b68181585d2833e84879b9709143e1f593f00000018110610eeb5760405162461bcd60e51b81526020600482015260196024820152784669656c643a20696e70757420697320746f6f206c6172676560381b60448201526064016125ca565b600182015415611a3e5760008260030183600401548154811061290c5761290c612da8565b600091825260209091200154905080156129395760008181526006840160205260409020805460ff191690555b818360030184600401548154811061295357612953612da8565b600091825260208083209091019290925583815260068501909152604090819020805460ff19166001179055600484015490517fd93a01f9fd16645baded390ac4e13d0c393a0a72610c6b21b939f87775767f70906129b59085815260200190565b60405180910390a28260010154836004015460016129d39190612e70565b6129dd9190612fd9565b6004840155505050565b600080602060008451602086016000885af180612a0a576040513d6000823e3d81fd5b50506000513d91508115612a22578060011415612a2f565b6001600160a01b0384163b155b1561094e5783604051635274afe760e01b81526004016125ca9190612c29565b6000806000806020600086516020880160008a5af192503d91506000519050828015612a9457508115612a855780600114612a94565b6000866001600160a01b03163b115b9695505050505050565b612aa882826116c7565b611a3e57808260405163e2517d3f60e01b81526004016125ca929190612f26565b60015460ff166119cf57604051638dfc202b60e01b815260040160405180910390fd5b6040518060e001604052806007906020820280368337509192915050565b6040518061040001604052806020906020820280368337509192915050565b600060208284031215612b3b57600080fd5b81356001600160e01b031981168114612b5357600080fd5b9392505050565b60008060008060408587031215612b7057600080fd5b84356001600160401b03811115612b8657600080fd5b8501601f81018713612b9757600080fd5b80356001600160401b03811115612bad57600080fd5b876020828401011115612bbf57600080fd5b6020918201955093508501356001600160401b03811115612bdf57600080fd5b8501601f81018713612bf057600080fd5b80356001600160401b03811115612c0657600080fd5b8760208260051b8401011115612c1b57600080fd5b949793965060200194505050565b6001600160a01b0391909116815260200190565b600060208284031215612c4f57600080fd5b5035919050565b80356001600160a01b0381168114611a4c57600080fd5b60008060408385031215612c8057600080fd5b82359150612c9060208401612c56565b90509250929050565b6104008101818360005b6020811015612cc2578151835260209283019290910190600101612ca3565b50505092915050565b60008060008060008060c08789031215612ce457600080fd5b8635955060208701359450612cfb60408801612c56565b959894975094956060810135955060808101359460a0909101359350915050565b60008060408385031215612d2f57600080fd5b50508035926020909101359150565b600081518084526020840193506020830160005b82811015612d70578151865260209586019590910190600101612d52565b5093949350505050565b604081526000612d8d6040830185612d3e565b8281036020840152612d9f8185612d3e565b95945050505050565b634e487b7160e01b600052603260045260246000fd5b6040815283604082015283856060830137600060608583018101829052601f19601f8701168301838103820160208501529081018490526001600160fb1b03841115612e0957600080fd5b8360051b80866080840137016080019695505050505050565b600060208284031215612e3457600080fd5b81518015158114612b5357600080fd5b634e487b7160e01b600052604160045260246000fd5b634e487b7160e01b600052601160045260246000fd5b808201808211156105c4576105c4612e5a565b602080825282518282018190526000918401906040840190835b81811015612ebb578351835260209384019390920191600101612e9d565b509095945050505050565b600060208284031215612ed857600080fd5b5051919050565b8060005b600781101561094e578151845260209384019390910190600101612ee3565b838152602081018390526101208101612f1e6040830184612edf565b949350505050565b6001600160a01b03929092168252602082015260400190565b600060018201612f5157612f51612e5a565b5060010190565b634e487b7160e01b600052601260045260246000fd5b600082612f7d57612f7d612f58565b500490565b818103818111156105c4576105c4612e5a565b878152602081018790526101a08101612fb16040830188612edf565b8561012083015284610140830152836101608301528261018083015298975050505050505050565b600082612fe857612fe8612f58565b50069056fe9e7c1dca9d4e3e1982962a3aa91452133b33272dbf4c15e10f0ef3b75bd72e5a65d7a28e3265b37a6474929f336521b332c1681b933f6cb9f3376673440d862aa2646970667358221220015493f5e91952e862121563aa2a3085a12cfc52e3df2d2dac543edc0e2617cb64736f6c634300081c0033",
  "linkReferences": {
    "contracts/Poseidon/Poseidon2.sol": {
      "Poseidon2": [
        {
          "length": 20,
          "start": 3691
        },
        {
          "length": 20,
          "start": 7958
        },
        {
          "length": 20,
          "start": 8793
        },
        {
          "length": 20,
          "start": 9701
        },
        {
          "length": 20,
          "start": 10222
        }
      ]
    }
  },
  "deployedLinkReferences": {
    "contracts/Poseidon/Poseidon2.sol": {
      "Poseidon2": [
        {
          "length": 20,
          "start": 1945
        },
        {
          "length": 20,
          "start": 6212
        },
        {
          "length": 20,
          "start": 7047
        },
        {
          "length": 20,
          "start": 7955
        },
        {
          "length": 20,
          "start": 8476
        }
      ]
    }
  }
}