{
  "_format": "hh-sol-artifact-1",
  "contractName": "NoxRewardPool",
  "sourceName": "contracts/nox/NoxRewardPool.sol",
  "abi": [
    {
      "inputs": [
        {
          "internalType": "address",
          "name": "_admin",
          "type": "address"
        }
      ],
      "stateMutability": "nonpayable",
      "type": "constructor"
    },
    {
      "inputs": [],
      "name": "AccessControlBadConfirmation",
      "type": "error"
    },
    {
      "inputs": [
        {
          "internalType": "address",
          "name": "account",
          "type": "address"
        },
        {
          "internalType": "bytes32",
          "name": "neededRole",
          "type": "bytes32"
        }
      ],
      "name": "AccessControlUnauthorizedAccount",
      "type": "error"
    },
    {
      "inputs": [],
      "name": "ArrayLengthMismatch",
      "type": "error"
    },
    {
      "inputs": [],
      "name": "AssetNotSupported",
      "type": "error"
    },
    {
      "inputs": [],
      "name": "EnforcedPause",
      "type": "error"
    },
    {
      "inputs": [],
      "name": "ExpectedPause",
      "type": "error"
    },
    {
      "inputs": [],
      "name": "InvalidAsset",
      "type": "error"
    },
    {
      "inputs": [],
      "name": "ReentrancyGuardReentrantCall",
      "type": "error"
    },
    {
      "inputs": [
        {
          "internalType": "address",
          "name": "token",
          "type": "address"
        }
      ],
      "name": "SafeERC20FailedOperation",
      "type": "error"
    },
    {
      "inputs": [],
      "name": "TransferFailed",
      "type": "error"
    },
    {
      "inputs": [],
      "name": "ZeroAddress",
      "type": "error"
    },
    {
      "inputs": [],
      "name": "ZeroAmount",
      "type": "error"
    },
    {
      "anonymous": false,
      "inputs": [
        {
          "indexed": true,
          "internalType": "address",
          "name": "asset",
          "type": "address"
        },
        {
          "indexed": false,
          "internalType": "bool",
          "name": "isSupported",
          "type": "bool"
        }
      ],
      "name": "AssetStatusChanged",
      "type": "event"
    },
    {
      "anonymous": false,
      "inputs": [
        {
          "indexed": true,
          "internalType": "address",
          "name": "asset",
          "type": "address"
        },
        {
          "indexed": true,
          "internalType": "address",
          "name": "to",
          "type": "address"
        },
        {
          "indexed": false,
          "internalType": "uint256",
          "name": "amount",
          "type": "uint256"
        }
      ],
      "name": "FundsRescued",
      "type": "event"
    },
    {
      "anonymous": false,
      "inputs": [
        {
          "indexed": false,
          "internalType": "address",
          "name": "account",
          "type": "address"
        }
      ],
      "name": "Paused",
      "type": "event"
    },
    {
      "anonymous": false,
      "inputs": [
        {
          "indexed": true,
          "internalType": "address",
          "name": "asset",
          "type": "address"
        },
        {
          "indexed": true,
          "internalType": "address",
          "name": "from",
          "type": "address"
        },
        {
          "indexed": false,
          "internalType": "uint256",
          "name": "amount",
          "type": "uint256"
        }
      ],
      "name": "RewardsDeposited",
      "type": "event"
    },
    {
      "anonymous": false,
      "inputs": [
        {
          "indexed": true,
          "internalType": "address",
          "name": "asset",
          "type": "address"
        },
        {
          "indexed": false,
          "internalType": "uint256",
          "name": "totalAmount",
          "type": "uint256"
        },
        {
          "indexed": false,
          "internalType": "uint256",
          "name": "recipientCount",
          "type": "uint256"
        }
      ],
      "name": "RewardsDistributed",
      "type": "event"
    },
    {
      "anonymous": false,
      "inputs": [
        {
          "indexed": true,
          "internalType": "bytes32",
          "name": "role",
          "type": "bytes32"
        },
        {
          "indexed": true,
          "internalType": "bytes32",
          "name": "previousAdminRole",
          "type": "bytes32"
        },
        {
          "indexed": true,
          "internalType": "bytes32",
          "name": "newAdminRole",
          "type": "bytes32"
        }
      ],
      "name": "RoleAdminChanged",
      "type": "event"
    },
    {
      "anonymous": false,
      "inputs": [
        {
          "indexed": true,
          "internalType": "bytes32",
          "name": "role",
          "type": "bytes32"
        },
        {
          "indexed": true,
          "internalType": "address",
          "name": "account",
          "type": "address"
        },
        {
          "indexed": true,
          "internalType": "address",
          "name": "sender",
          "type": "address"
        }
      ],
      "name": "RoleGranted",
      "type": "event"
    },
    {
      "anonymous": false,
      "inputs": [
        {
          "indexed": true,
          "internalType": "bytes32",
          "name": "role",
          "type": "bytes32"
        },
        {
          "indexed": true,
          "internalType": "address",
          "name": "account",
          "type": "address"
        },
        {
          "indexed": true,
          "internalType": "address",
          "name": "sender",
          "type": "address"
        }
      ],
      "name": "RoleRevoked",
      "type": "event"
    },
    {
      "anonymous": false,
      "inputs": [
        {
          "indexed": false,
          "internalType": "address",
          "name": "account",
          "type": "address"
        }
      ],
      "name": "Unpaused",
      "type": "event"
    },
    {
      "inputs": [],
      "name": "ADMIN_ROLE",
      "outputs": [
        {
          "internalType": "bytes32",
          "name": "",
          "type": "bytes32"
        }
      ],
      "stateMutability": "view",
      "type": "function"
    },
    {
      "inputs": [],
      "name": "DEFAULT_ADMIN_ROLE",
      "outputs": [
        {
          "internalType": "bytes32",
          "name": "",
          "type": "bytes32"
        }
      ],
      "stateMutability": "view",
      "type": "function"
    },
    {
      "inputs": [],
      "name": "DISTRIBUTOR_ROLE",
      "outputs": [
        {
          "internalType": "bytes32",
          "name": "",
          "type": "bytes32"
        }
      ],
      "stateMutability": "view",
      "type": "function"
    },
    {
      "inputs": [
        {
          "internalType": "address",
          "name": "_asset",
          "type": "address"
        },
        {
          "internalType": "uint256",
          "name": "_amount",
          "type": "uint256"
        }
      ],
      "name": "depositRewards",
      "outputs": [],
      "stateMutability": "nonpayable",
      "type": "function"
    },
    {
      "inputs": [
        {
          "internalType": "address",
          "name": "_asset",
          "type": "address"
        },
        {
          "internalType": "address[]",
          "name": "_recipients",
          "type": "address[]"
        },
        {
          "internalType": "uint256[]",
          "name": "_amounts",
          "type": "uint256[]"
        }
      ],
      "name": "distributeRewards",
      "outputs": [],
      "stateMutability": "nonpayable",
      "type": "function"
    },
    {
      "inputs": [
        {
          "internalType": "bytes32",
          "name": "role",
          "type": "bytes32"
        }
      ],
      "name": "getRoleAdmin",
      "outputs": [
        {
          "internalType": "bytes32",
          "name": "",
          "type": "bytes32"
        }
      ],
      "stateMutability": "view",
      "type": "function"
    },
    {
      "inputs": [
        {
          "internalType": "bytes32",
          "name": "role",
          "type": "bytes32"
        },
        {
          "internalType": "address",
          "name": "account",
          "type": "address"
        }
      ],
      "name": "grantRole",
      "outputs": [],
      "stateMutability": "nonpayable",
      "type": "function"
    },
    {
      "inputs": [
        {
          "internalType": "bytes32",
          "name": "role",
          "type": "bytes32"
        },
        {
          "internalType": "address",
          "name": "account",
          "type": "address"
        }
      ],
      "name": "hasRole",
      "outputs": [
        {
          "internalType": "bool",
          "name": "",
          "type": "bool"
        }
      ],
      "stateMutability": "view",
      "type": "function"
    },
    {
      "inputs": [
        {
          "internalType": "address",
          "name": "",
          "type": "address"
        }
      ],
      "name": "isSupportedAsset",
      "outputs": [
        {
          "internalType": "bool",
          "name": "",
          "type": "bool"
        }
      ],
      "stateMutability": "view",
      "type": "function"
    },
    {
      "inputs": [],
      "name": "pause",
      "outputs": [],
      "stateMutability": "nonpayable",
      "type": "function"
    },
    {
      "inputs": [],
      "name": "paused",
      "outputs": [
        {
          "internalType": "bool",
          "name": "",
          "type": "bool"
        }
      ],
      "stateMutability": "view",
      "type": "function"
    },
    {
      "inputs": [
        {
          "internalType": "bytes32",
          "name": "role",
          "type": "bytes32"
        },
        {
          "internalType": "address",
          "name": "callerConfirmation",
          "type": "address"
        }
      ],
      "name": "renounceRole",
      "outputs": [],
      "stateMutability": "nonpayable",
      "type": "function"
    },
    {
      "inputs": [
        {
          "internalType": "address",
          "name": "_asset",
          "type": "address"
        },
        {
          "internalType": "address",
          "name": "_to",
          "type": "address"
        },
        {
          "internalType": "uint256",
          "name": "_amount",
          "type": "uint256"
        }
      ],
      "name": "rescueFunds",
      "outputs": [],
      "stateMutability": "nonpayable",
      "type": "function"
    },
    {
      "inputs": [
        {
          "internalType": "bytes32",
          "name": "role",
          "type": "bytes32"
        },
        {
          "internalType": "address",
          "name": "account",
          "type": "address"
        }
      ],
      "name": "revokeRole",
      "outputs": [],
      "stateMutability": "nonpayable",
      "type": "function"
    },
    {
      "inputs": [
        {
          "internalType": "address",
          "name": "_asset",
          "type": "address"
        },
        {
          "internalType": "bool",
          "name": "_status",
          "type": "bool"
        }
      ],
      "name": "setAssetStatus",
      "outputs": [],
      "stateMutability": "nonpayable",
      "type": "function"
    },
    {
      "inputs": [
        {
          "internalType": "bytes4",
          "name": "interfaceId",
          "type": "bytes4"
        }
      ],
      "name": "supportsInterface",
      "outputs": [
        {
          "internalType": "bool",
          "name": "",
          "type": "bool"
        }
      ],
      "stateMutability": "view",
      "type": "function"
    },
    {
      "inputs": [
        {
          "internalType": "address",
          "name": "",
          "type": "address"
        }
      ],
      "name": "totalCollected",
      "outputs": [
        {
          "internalType": "uint256",
          "name": "",
          "type": "uint256"
        }
      ],
      "stateMutability": "view",
      "type": "function"
    },
    {
      "inputs": [
        {
          "internalType": "address",
          "name": "",
          "type": "address"
        }
      ],
      "name": "totalDistributed",
      "outputs": [
        {
          "internalType": "uint256",
          "name": "",
          "type": "uint256"
        }
      ],
      "stateMutability": "view",
      "type": "function"
    },
    {
      "inputs": [],
      "name": "unpause",
      "outputs": [],
      "stateMutability": "nonpayable",
      "type": "function"
    }
  ],
  "bytecode": "0x608060405234801561001057600080fd5b50604051610fce380380610fce83398101604081905261002f9161016e565b600180556001600160a01b03811661005a5760405163d92e233d60e01b815260040160405180910390fd5b6100656000826100c2565b506100907fa49807205ce4d355092ef5a8a18f56e8913cf4a201fbe287825b095693c21775826100c2565b506100bb7ffbd454f36a7e1a388bd6fc3ab10d434aa4578f811acbbcf33afb1c697486313c826100c2565b505061019e565b6000828152602081815260408083206001600160a01b038516845290915281205460ff16610164576000838152602081815260408083206001600160a01b03861684529091529020805460ff1916600117905561011c3390565b6001600160a01b0316826001600160a01b0316847f2f8788117e7eff1d82e926ec794901d17c78024a50270940304540a733656f0d60405160405180910390a4506001610168565b5060005b92915050565b60006020828403121561018057600080fd5b81516001600160a01b038116811461019757600080fd5b9392505050565b610e21806101ad6000396000f3fe608060405234801561001057600080fd5b50600436106100f15760003560e01c806301ffc9a7146100f6578063248a9ca31461011e5780632f2ff15d1461013f57806336568abe146101545780633f4ba83a146101675780635c975abb1461016f5780636ccae0541461017a57806375b238fc1461018d5780638456cb59146101a25780638b8dfa39146101aa57806391d14854146101ca57806397ad1cce146101dd5780639be918e6146101f0578063a217fddf14610213578063b0f870f81461021b578063d547741f1461022e578063dd8c818e14610241578063f0bd87cc14610254578063f3f0531314610269575b600080fd5b610109610104366004610b28565b610289565b60405190151581526020015b60405180910390f35b61013161012c366004610b59565b6102c0565b604051908152602001610115565b61015261014d366004610b8e565b6102d5565b005b610152610162366004610b8e565b6102f7565b61015261032f565b60025460ff16610109565b610152610188366004610bba565b610352565b610131600080516020610dcc83398151915281565b610152610425565b6101316101b8366004610bf7565b60056020526000908152604090205481565b6101096101d8366004610b8e565b610445565b6101526101eb366004610c12565b61046e565b6101096101fe366004610bf7565b60036020526000908152604090205460ff1681565b610131600081565b610152610229366004610c3c565b610568565b61015261023c366004610b8e565b610607565b61015261024f366004610cc3565b610623565b610131600080516020610dac83398151915281565b610131610277366004610bf7565b60046020526000908152604090205481565b60006001600160e01b03198216637965db0b60e01b14806102ba57506301ffc9a760e01b6001600160e01b03198316145b92915050565b60009081526020819052604090206001015490565b6102de826102c0565b6102e7816107f8565b6102f18383610802565b50505050565b6001600160a01b03811633146103205760405163334bd91960e11b815260040160405180910390fd5b61032a8282610894565b505050565b600080516020610dcc833981519152610347816107f8565b61034f6108ff565b50565b61035a61094b565b600080516020610dcc833981519152610372816107f8565b6001600160a01b0383166103995760405163d92e233d60e01b815260040160405180910390fd5b816000036103ba57604051631f2a200560e01b815260040160405180910390fd5b6103ce6001600160a01b0385168484610975565b826001600160a01b0316846001600160a01b03167fed2837b80b3489773c5f1ed30dd2884b4c90dbf7b87428ea03c49b24ef59a8058460405161041391815260200190565b60405180910390a35061032a60018055565b600080516020610dcc83398151915261043d816107f8565b61034f6109cd565b6000918252602082815260408084206001600160a01b0393909316845291905290205460ff1690565b61047661094b565b61047e610a0a565b8060000361049f57604051631f2a200560e01b815260040160405180910390fd5b6001600160a01b03821660009081526003602052604090205460ff166104d85760405163981a2a2b60e01b815260040160405180910390fd5b6001600160a01b03821660009081526004602052604081208054839290610500908490610d47565b9091555061051b90506001600160a01b038316333084610a30565b60405181815233906001600160a01b038416907fd66544dd5ed3eb02982a905e9b45d8eecc72f6af1db4d34d43d4f774307eda519060200160405180910390a361056460018055565b5050565b600080516020610dcc833981519152610580816107f8565b6001600160a01b0383166105a75760405163d92e233d60e01b815260040160405180910390fd5b6001600160a01b038316600081815260036020908152604091829020805460ff191686151590811790915591519182527f409295ac74e8693e50d9c1104ed31735b01ce0bbb0772e2fc4392180993c8a94910160405180910390a2505050565b610610826102c0565b610619816107f8565b6102f18383610894565b61062b61094b565b610633610a0a565b600080516020610dac83398151915261064b816107f8565b6001600160a01b03861660009081526003602052604090205460ff166106845760405163981a2a2b60e01b815260040160405180910390fd5b8382146106a45760405163512509d360e11b815260040160405180910390fd5b60008490036106c65760405163512509d360e11b815260040160405180910390fd5b6000805b858110156107745760008787838181106106e6576106e6610d68565b90506020020160208101906106fb9190610bf7565b9050600086868481811061071157610711610d68565b60200291909101359150506001600160a01b0382166107435760405163d92e233d60e01b815260040160405180910390fd5b801561076a5761075d6001600160a01b038b168383610975565b6107678185610d47565b93505b50506001016106ca565b506001600160a01b0387166000908152600560205260408120805483929061079d908490610d47565b909155505060408051828152602081018790526001600160a01b038916917fe4e801442ed461792c0bdfa7f5c25444d391d67d68422437bd9005796c67cb23910160405180910390a250506107f160018055565b5050505050565b61034f8133610a69565b600061080e8383610445565b61088c576000838152602081815260408083206001600160a01b03861684529091529020805460ff191660011790556108443390565b6001600160a01b0316826001600160a01b0316847f2f8788117e7eff1d82e926ec794901d17c78024a50270940304540a733656f0d60405160405180910390a45060016102ba565b5060006102ba565b60006108a08383610445565b1561088c576000838152602081815260408083206001600160a01b0386168085529252808320805460ff1916905551339286917ff6391f5c32d9c69d2a47ea670b442974b53935d1edc7fd64eb21e047a839171b9190a45060016102ba565b610907610a9d565b6002805460ff191690557f5db9ee0a495bf2e6ff9c91a7834c1ba4fdd244a5e8aa4e537bd38aeae4b073aa335b6040516109419190610d7e565b60405180910390a1565b60026001540361096e57604051633ee5aeb560e01b815260040160405180910390fd5b6002600155565b61032a83846001600160a01b031663a9059cbb858560405160240161099b929190610d92565b604051602081830303815290604052915060e01b6020820180516001600160e01b038381831617835250505050610ac0565b6109d5610a0a565b6002805460ff191660011790557f62e78cea01bee320cd4e420270b5ea74000d11b0c9f74754ebdbfc544b05a2586109343390565b60025460ff1615610a2e5760405163d93c066560e01b815260040160405180910390fd5b565b6040516001600160a01b0384811660248301528381166044830152606482018390526102f19186918216906323b872dd9060840161099b565b610a738282610445565b61056457808260405163e2517d3f60e01b8152600401610a94929190610d92565b60405180910390fd5b60025460ff16610a2e57604051638dfc202b60e01b815260040160405180910390fd5b600080602060008451602086016000885af180610ae3576040513d6000823e3d81fd5b50506000513d91508115610afb578060011415610b08565b6001600160a01b0384163b155b156102f15783604051635274afe760e01b8152600401610a949190610d7e565b600060208284031215610b3a57600080fd5b81356001600160e01b031981168114610b5257600080fd5b9392505050565b600060208284031215610b6b57600080fd5b5035919050565b80356001600160a01b0381168114610b8957600080fd5b919050565b60008060408385031215610ba157600080fd5b82359150610bb160208401610b72565b90509250929050565b600080600060608486031215610bcf57600080fd5b610bd884610b72565b9250610be660208501610b72565b929592945050506040919091013590565b600060208284031215610c0957600080fd5b610b5282610b72565b60008060408385031215610c2557600080fd5b610c2e83610b72565b946020939093013593505050565b60008060408385031215610c4f57600080fd5b610c5883610b72565b915060208301358015158114610c6d57600080fd5b809150509250929050565b60008083601f840112610c8a57600080fd5b5081356001600160401b03811115610ca157600080fd5b6020830191508360208260051b8501011115610cbc57600080fd5b9250929050565b600080600080600060608688031215610cdb57600080fd5b610ce486610b72565b945060208601356001600160401b03811115610cff57600080fd5b610d0b88828901610c78565b90955093505060408601356001600160401b03811115610d2a57600080fd5b610d3688828901610c78565b969995985093965092949392505050565b808201808211156102ba57634e487b7160e01b600052601160045260246000fd5b634e487b7160e01b600052603260045260246000fd5b6001600160a01b0391909116815260200190565b6001600160a01b0392909216825260208201526040019056fefbd454f36a7e1a388bd6fc3ab10d434aa4578f811acbbcf33afb1c697486313ca49807205ce4d355092ef5a8a18f56e8913cf4a201fbe287825b095693c21775a264697066735822122076cad5fbf0edc0e136a37ef254d939bdadce8efa756b32aa8f5cf391aae04d4564736f6c634300081c0033",
  "linkReferences": {},
  "deployedLinkReferences": {}
}