{
  "_format": "hh-sol-artifact-1",
  "contractName": "NoxRegistry",
  "sourceName": "contracts/nox/NoxRegistry.sol",
  "abi": [
    {
      "inputs": [
        {
          "internalType": "address",
          "name": "_admin",
          "type": "address"
        },
        {
          "internalType": "address",
          "name": "_stakingToken",
          "type": "address"
        },
        {
          "internalType": "uint256",
          "name": "_minStake",
          "type": "uint256"
        },
        {
          "internalType": "uint256",
          "name": "_unstakeDelay",
          "type": "uint256"
        }
      ],
      "stateMutability": "nonpayable",
      "type": "constructor"
    },
    {
      "inputs": [],
      "name": "AccessControlBadConfirmation",
      "type": "error"
    },
    {
      "inputs": [
        {
          "internalType": "address",
          "name": "account",
          "type": "address"
        },
        {
          "internalType": "bytes32",
          "name": "neededRole",
          "type": "bytes32"
        }
      ],
      "name": "AccessControlUnauthorizedAccount",
      "type": "error"
    },
    {
      "inputs": [],
      "name": "AlreadyRegistered",
      "type": "error"
    },
    {
      "inputs": [],
      "name": "DuplicateKey",
      "type": "error"
    },
    {
      "inputs": [],
      "name": "EmptyString",
      "type": "error"
    },
    {
      "inputs": [],
      "name": "EnforcedPause",
      "type": "error"
    },
    {
      "inputs": [],
      "name": "ExpectedPause",
      "type": "error"
    },
    {
      "inputs": [],
      "name": "InsufficientStake",
      "type": "error"
    },
    {
      "inputs": [],
      "name": "InvalidAmount",
      "type": "error"
    },
    {
      "inputs": [],
      "name": "InvalidKey",
      "type": "error"
    },
    {
      "inputs": [],
      "name": "InvalidRole",
      "type": "error"
    },
    {
      "inputs": [],
      "name": "NotRegistered",
      "type": "error"
    },
    {
      "inputs": [],
      "name": "ReentrancyGuardReentrantCall",
      "type": "error"
    },
    {
      "inputs": [
        {
          "internalType": "address",
          "name": "token",
          "type": "address"
        }
      ],
      "name": "SafeERC20FailedOperation",
      "type": "error"
    },
    {
      "inputs": [],
      "name": "UnstakeAlreadyRequested",
      "type": "error"
    },
    {
      "inputs": [],
      "name": "UnstakeNotRequested",
      "type": "error"
    },
    {
      "inputs": [],
      "name": "UnstakeTooEarly",
      "type": "error"
    },
    {
      "inputs": [],
      "name": "ZeroAddress",
      "type": "error"
    },
    {
      "anonymous": false,
      "inputs": [
        {
          "indexed": false,
          "internalType": "uint256",
          "name": "newMinStake",
          "type": "uint256"
        },
        {
          "indexed": false,
          "internalType": "uint256",
          "name": "newUnstakeDelay",
          "type": "uint256"
        }
      ],
      "name": "ConfigUpdated",
      "type": "event"
    },
    {
      "anonymous": false,
      "inputs": [
        {
          "indexed": true,
          "internalType": "address",
          "name": "relayer",
          "type": "address"
        },
        {
          "indexed": false,
          "internalType": "bytes32",
          "name": "newSphinxKey",
          "type": "bytes32"
        }
      ],
      "name": "KeyRotated",
      "type": "event"
    },
    {
      "anonymous": false,
      "inputs": [
        {
          "indexed": false,
          "internalType": "address",
          "name": "account",
          "type": "address"
        }
      ],
      "name": "Paused",
      "type": "event"
    },
    {
      "anonymous": false,
      "inputs": [
        {
          "indexed": true,
          "internalType": "address",
          "name": "relayer",
          "type": "address"
        },
        {
          "indexed": false,
          "internalType": "bytes32",
          "name": "sphinxKey",
          "type": "bytes32"
        },
        {
          "indexed": false,
          "internalType": "string",
          "name": "url",
          "type": "string"
        },
        {
          "indexed": false,
          "internalType": "uint8",
          "name": "nodeRole",
          "type": "uint8"
        }
      ],
      "name": "PrivilegedRelayerRegistered",
      "type": "event"
    },
    {
      "anonymous": false,
      "inputs": [
        {
          "indexed": true,
          "internalType": "address",
          "name": "relayer",
          "type": "address"
        },
        {
          "indexed": false,
          "internalType": "bytes32",
          "name": "sphinxKey",
          "type": "bytes32"
        },
        {
          "indexed": false,
          "internalType": "string",
          "name": "url",
          "type": "string"
        },
        {
          "indexed": false,
          "internalType": "uint256",
          "name": "stake",
          "type": "uint256"
        },
        {
          "indexed": false,
          "internalType": "uint8",
          "name": "nodeRole",
          "type": "uint8"
        }
      ],
      "name": "RelayerRegistered",
      "type": "event"
    },
    {
      "anonymous": false,
      "inputs": [
        {
          "indexed": true,
          "internalType": "address",
          "name": "relayer",
          "type": "address"
        },
        {
          "indexed": true,
          "internalType": "address",
          "name": "by",
          "type": "address"
        }
      ],
      "name": "RelayerRemoved",
      "type": "event"
    },
    {
      "anonymous": false,
      "inputs": [
        {
          "indexed": true,
          "internalType": "address",
          "name": "relayer",
          "type": "address"
        },
        {
          "indexed": false,
          "internalType": "string",
          "name": "newUrl",
          "type": "string"
        }
      ],
      "name": "RelayerUpdated",
      "type": "event"
    },
    {
      "anonymous": false,
      "inputs": [
        {
          "indexed": true,
          "internalType": "bytes32",
          "name": "role",
          "type": "bytes32"
        },
        {
          "indexed": true,
          "internalType": "bytes32",
          "name": "previousAdminRole",
          "type": "bytes32"
        },
        {
          "indexed": true,
          "internalType": "bytes32",
          "name": "newAdminRole",
          "type": "bytes32"
        }
      ],
      "name": "RoleAdminChanged",
      "type": "event"
    },
    {
      "anonymous": false,
      "inputs": [
        {
          "indexed": true,
          "internalType": "bytes32",
          "name": "role",
          "type": "bytes32"
        },
        {
          "indexed": true,
          "internalType": "address",
          "name": "account",
          "type": "address"
        },
        {
          "indexed": true,
          "internalType": "address",
          "name": "sender",
          "type": "address"
        }
      ],
      "name": "RoleGranted",
      "type": "event"
    },
    {
      "anonymous": false,
      "inputs": [
        {
          "indexed": true,
          "internalType": "bytes32",
          "name": "role",
          "type": "bytes32"
        },
        {
          "indexed": true,
          "internalType": "address",
          "name": "account",
          "type": "address"
        },
        {
          "indexed": true,
          "internalType": "address",
          "name": "sender",
          "type": "address"
        }
      ],
      "name": "RoleRevoked",
      "type": "event"
    },
    {
      "anonymous": false,
      "inputs": [
        {
          "indexed": true,
          "internalType": "address",
          "name": "relayer",
          "type": "address"
        },
        {
          "indexed": false,
          "internalType": "uint8",
          "name": "newRole",
          "type": "uint8"
        }
      ],
      "name": "RoleUpdated",
      "type": "event"
    },
    {
      "anonymous": false,
      "inputs": [
        {
          "indexed": true,
          "internalType": "address",
          "name": "relayer",
          "type": "address"
        },
        {
          "indexed": false,
          "internalType": "uint256",
          "name": "amount",
          "type": "uint256"
        },
        {
          "indexed": true,
          "internalType": "address",
          "name": "slasher",
          "type": "address"
        }
      ],
      "name": "Slashed",
      "type": "event"
    },
    {
      "anonymous": false,
      "inputs": [
        {
          "indexed": true,
          "internalType": "address",
          "name": "relayer",
          "type": "address"
        },
        {
          "indexed": false,
          "internalType": "uint256",
          "name": "amount",
          "type": "uint256"
        }
      ],
      "name": "StakeAdded",
      "type": "event"
    },
    {
      "anonymous": false,
      "inputs": [
        {
          "indexed": true,
          "internalType": "bytes32",
          "name": "newFingerprint",
          "type": "bytes32"
        },
        {
          "indexed": true,
          "internalType": "bytes32",
          "name": "prevFingerprint",
          "type": "bytes32"
        }
      ],
      "name": "TopologyFingerprintUpdated",
      "type": "event"
    },
    {
      "anonymous": false,
      "inputs": [
        {
          "indexed": false,
          "internalType": "address",
          "name": "account",
          "type": "address"
        }
      ],
      "name": "Unpaused",
      "type": "event"
    },
    {
      "anonymous": false,
      "inputs": [
        {
          "indexed": true,
          "internalType": "address",
          "name": "relayer",
          "type": "address"
        },
        {
          "indexed": false,
          "internalType": "uint256",
          "name": "unlockTime",
          "type": "uint256"
        }
      ],
      "name": "UnstakeRequested",
      "type": "event"
    },
    {
      "anonymous": false,
      "inputs": [
        {
          "indexed": true,
          "internalType": "address",
          "name": "relayer",
          "type": "address"
        },
        {
          "indexed": false,
          "internalType": "uint256",
          "name": "amount",
          "type": "uint256"
        }
      ],
      "name": "Unstaked",
      "type": "event"
    },
    {
      "inputs": [],
      "name": "CONFIG_ROLE",
      "outputs": [
        {
          "internalType": "bytes32",
          "name": "",
          "type": "bytes32"
        }
      ],
      "stateMutability": "view",
      "type": "function"
    },
    {
      "inputs": [],
      "name": "DEFAULT_ADMIN_ROLE",
      "outputs": [
        {
          "internalType": "bytes32",
          "name": "",
          "type": "bytes32"
        }
      ],
      "stateMutability": "view",
      "type": "function"
    },
    {
      "inputs": [],
      "name": "MIN_UNSTAKE_DELAY",
      "outputs": [
        {
          "internalType": "uint256",
          "name": "",
          "type": "uint256"
        }
      ],
      "stateMutability": "view",
      "type": "function"
    },
    {
      "inputs": [],
      "name": "ROLE_EXIT",
      "outputs": [
        {
          "internalType": "uint8",
          "name": "",
          "type": "uint8"
        }
      ],
      "stateMutability": "view",
      "type": "function"
    },
    {
      "inputs": [],
      "name": "ROLE_FULL",
      "outputs": [
        {
          "internalType": "uint8",
          "name": "",
          "type": "uint8"
        }
      ],
      "stateMutability": "view",
      "type": "function"
    },
    {
      "inputs": [],
      "name": "ROLE_RELAY",
      "outputs": [
        {
          "internalType": "uint8",
          "name": "",
          "type": "uint8"
        }
      ],
      "stateMutability": "view",
      "type": "function"
    },
    {
      "inputs": [],
      "name": "SLASHER_ROLE",
      "outputs": [
        {
          "internalType": "bytes32",
          "name": "",
          "type": "bytes32"
        }
      ],
      "stateMutability": "view",
      "type": "function"
    },
    {
      "inputs": [
        {
          "internalType": "uint256",
          "name": "_amount",
          "type": "uint256"
        }
      ],
      "name": "addStake",
      "outputs": [],
      "stateMutability": "nonpayable",
      "type": "function"
    },
    {
      "inputs": [],
      "name": "executeUnstake",
      "outputs": [],
      "stateMutability": "nonpayable",
      "type": "function"
    },
    {
      "inputs": [
        {
          "internalType": "address",
          "name": "_relayer",
          "type": "address"
        }
      ],
      "name": "forceUnregister",
      "outputs": [],
      "stateMutability": "nonpayable",
      "type": "function"
    },
    {
      "inputs": [
        {
          "internalType": "address",
          "name": "_relayer",
          "type": "address"
        }
      ],
      "name": "getNodeRole",
      "outputs": [
        {
          "internalType": "uint8",
          "name": "",
          "type": "uint8"
        }
      ],
      "stateMutability": "view",
      "type": "function"
    },
    {
      "inputs": [
        {
          "internalType": "bytes32",
          "name": "role",
          "type": "bytes32"
        }
      ],
      "name": "getRoleAdmin",
      "outputs": [
        {
          "internalType": "bytes32",
          "name": "",
          "type": "bytes32"
        }
      ],
      "stateMutability": "view",
      "type": "function"
    },
    {
      "inputs": [
        {
          "internalType": "bytes32",
          "name": "role",
          "type": "bytes32"
        },
        {
          "internalType": "address",
          "name": "account",
          "type": "address"
        }
      ],
      "name": "grantRole",
      "outputs": [],
      "stateMutability": "nonpayable",
      "type": "function"
    },
    {
      "inputs": [
        {
          "internalType": "bytes32",
          "name": "role",
          "type": "bytes32"
        },
        {
          "internalType": "address",
          "name": "account",
          "type": "address"
        }
      ],
      "name": "hasRole",
      "outputs": [
        {
          "internalType": "bool",
          "name": "",
          "type": "bool"
        }
      ],
      "stateMutability": "view",
      "type": "function"
    },
    {
      "inputs": [],
      "name": "minStakeAmount",
      "outputs": [
        {
          "internalType": "uint256",
          "name": "",
          "type": "uint256"
        }
      ],
      "stateMutability": "view",
      "type": "function"
    },
    {
      "inputs": [
        {
          "internalType": "address",
          "name": "",
          "type": "address"
        }
      ],
      "name": "nodeRoles",
      "outputs": [
        {
          "internalType": "uint8",
          "name": "",
          "type": "uint8"
        }
      ],
      "stateMutability": "view",
      "type": "function"
    },
    {
      "inputs": [],
      "name": "paused",
      "outputs": [
        {
          "internalType": "bool",
          "name": "",
          "type": "bool"
        }
      ],
      "stateMutability": "view",
      "type": "function"
    },
    {
      "inputs": [
        {
          "internalType": "bytes32",
          "name": "_sphinxKey",
          "type": "bytes32"
        },
        {
          "internalType": "string",
          "name": "_url",
          "type": "string"
        },
        {
          "internalType": "uint256",
          "name": "_stakeAmount",
          "type": "uint256"
        },
        {
          "internalType": "uint8",
          "name": "_nodeRole",
          "type": "uint8"
        }
      ],
      "name": "register",
      "outputs": [],
      "stateMutability": "nonpayable",
      "type": "function"
    },
    {
      "inputs": [
        {
          "internalType": "address",
          "name": "_relayer",
          "type": "address"
        },
        {
          "internalType": "bytes32",
          "name": "_sphinxKey",
          "type": "bytes32"
        },
        {
          "internalType": "string",
          "name": "_url",
          "type": "string"
        },
        {
          "internalType": "uint8",
          "name": "_nodeRole",
          "type": "uint8"
        }
      ],
      "name": "registerPrivileged",
      "outputs": [],
      "stateMutability": "nonpayable",
      "type": "function"
    },
    {
      "inputs": [],
      "name": "relayerCount",
      "outputs": [
        {
          "internalType": "uint256",
          "name": "",
          "type": "uint256"
        }
      ],
      "stateMutability": "view",
      "type": "function"
    },
    {
      "inputs": [
        {
          "internalType": "address",
          "name": "",
          "type": "address"
        }
      ],
      "name": "relayers",
      "outputs": [
        {
          "internalType": "bytes32",
          "name": "sphinxKey",
          "type": "bytes32"
        },
        {
          "internalType": "string",
          "name": "url",
          "type": "string"
        },
        {
          "internalType": "uint256",
          "name": "stakedAmount",
          "type": "uint256"
        },
        {
          "internalType": "uint256",
          "name": "unstakeRequestTime",
          "type": "uint256"
        },
        {
          "internalType": "bool",
          "name": "isRegistered",
          "type": "bool"
        }
      ],
      "stateMutability": "view",
      "type": "function"
    },
    {
      "inputs": [
        {
          "internalType": "bytes32",
          "name": "role",
          "type": "bytes32"
        },
        {
          "internalType": "address",
          "name": "callerConfirmation",
          "type": "address"
        }
      ],
      "name": "renounceRole",
      "outputs": [],
      "stateMutability": "nonpayable",
      "type": "function"
    },
    {
      "inputs": [],
      "name": "requestUnstake",
      "outputs": [],
      "stateMutability": "nonpayable",
      "type": "function"
    },
    {
      "inputs": [
        {
          "internalType": "bytes32",
          "name": "role",
          "type": "bytes32"
        },
        {
          "internalType": "address",
          "name": "account",
          "type": "address"
        }
      ],
      "name": "revokeRole",
      "outputs": [],
      "stateMutability": "nonpayable",
      "type": "function"
    },
    {
      "inputs": [
        {
          "internalType": "bytes32",
          "name": "_newSphinxKey",
          "type": "bytes32"
        }
      ],
      "name": "rotateKey",
      "outputs": [],
      "stateMutability": "nonpayable",
      "type": "function"
    },
    {
      "inputs": [
        {
          "internalType": "address",
          "name": "_relayer",
          "type": "address"
        },
        {
          "internalType": "uint256",
          "name": "_amount",
          "type": "uint256"
        }
      ],
      "name": "slash",
      "outputs": [],
      "stateMutability": "nonpayable",
      "type": "function"
    },
    {
      "inputs": [
        {
          "internalType": "bytes32",
          "name": "",
          "type": "bytes32"
        }
      ],
      "name": "sphinxKeyOwner",
      "outputs": [
        {
          "internalType": "address",
          "name": "",
          "type": "address"
        }
      ],
      "stateMutability": "view",
      "type": "function"
    },
    {
      "inputs": [],
      "name": "stakingToken",
      "outputs": [
        {
          "internalType": "contract IERC20",
          "name": "",
          "type": "address"
        }
      ],
      "stateMutability": "view",
      "type": "function"
    },
    {
      "inputs": [
        {
          "internalType": "bytes4",
          "name": "interfaceId",
          "type": "bytes4"
        }
      ],
      "name": "supportsInterface",
      "outputs": [
        {
          "internalType": "bool",
          "name": "",
          "type": "bool"
        }
      ],
      "stateMutability": "view",
      "type": "function"
    },
    {
      "inputs": [],
      "name": "topologyFingerprint",
      "outputs": [
        {
          "internalType": "bytes32",
          "name": "",
          "type": "bytes32"
        }
      ],
      "stateMutability": "view",
      "type": "function"
    },
    {
      "inputs": [],
      "name": "unstakeDelay",
      "outputs": [
        {
          "internalType": "uint256",
          "name": "",
          "type": "uint256"
        }
      ],
      "stateMutability": "view",
      "type": "function"
    },
    {
      "inputs": [
        {
          "internalType": "uint256",
          "name": "_minStake",
          "type": "uint256"
        },
        {
          "internalType": "uint256",
          "name": "_unstakeDelay",
          "type": "uint256"
        }
      ],
      "name": "updateConfig",
      "outputs": [],
      "stateMutability": "nonpayable",
      "type": "function"
    },
    {
      "inputs": [
        {
          "internalType": "uint8",
          "name": "_newRole",
          "type": "uint8"
        }
      ],
      "name": "updateRole",
      "outputs": [],
      "stateMutability": "nonpayable",
      "type": "function"
    },
    {
      "inputs": [
        {
          "internalType": "string",
          "name": "_newUrl",
          "type": "string"
        }
      ],
      "name": "updateUrl",
      "outputs": [],
      "stateMutability": "nonpayable",
      "type": "function"
    }
  ],
  "bytecode": "0x60a060405234801561001057600080fd5b5060405161208c38038061208c83398101604081905261002f916101c5565b600180556001600160a01b03841661005a5760405163d92e233d60e01b815260040160405180910390fd5b6001600160a01b0383166100815760405163d92e233d60e01b815260040160405180910390fd5b61008c6000856100fd565b506100b77f82db594318110a04b6349ce48645aa69f0892751bc893d15e61d9e2b9c4630f5856100fd565b506100e27f12b42e8a160f6064dc959c6f251e3af0750ad213dbecf573b4710d67d6c28e39856100fd565b506001600160a01b0390921660805260035560045550610208565b6000828152602081815260408083206001600160a01b038516845290915281205460ff1661019f576000838152602081815260408083206001600160a01b03861684529091529020805460ff191660011790556101573390565b6001600160a01b0316826001600160a01b0316847f2f8788117e7eff1d82e926ec794901d17c78024a50270940304540a733656f0d60405160405180910390a45060016101a3565b5060005b92915050565b80516001600160a01b03811681146101c057600080fd5b919050565b600080600080608085870312156101db57600080fd5b6101e4856101a9565b93506101f2602086016101a9565b6040860151606090960151949790965092505050565b608051611e466102466000396000818161032301528181610536015281816106dc01528181610b2901528181610daf01526111510152611e466000f3fe608060405234801561001057600080fd5b50600436106101965760003560e01c806301ffc9a71461019b57806302fb4d85146101c35780630cea2bda146101d85780631bd76921146101e057806323bd29a314610216578063248a9ca3146102305780632f2ff15d146102515780633222012f1461026457806336568abe1461026d5780633cce4d3d14610280578063451f06ef146102895780635095af64146102915780635300f841146102a657806355b211e3146102ca57806359d9273e146102dd5780635c975abb1461030057806361765a261461030b57806372f702f31461031e5780638248e7221461034557806391d148541461035857806391e245791461036b5780639d1eb9741461037e578063a217fddf14610391578063a31c9c0d14610399578063a4d19feb146103a3578063c0a1e931146103b8578063cf1a7a21146103cb578063d20b309f146103d4578063d547741f146103dc578063eb4f16b5146103ef578063f188768414610402578063f605d7591461040b578063f928edc21461041e578063fc63958e14610431575b600080fd5b6101ae6101a9366004611791565b610439565b60405190151581526020015b60405180910390f35b6101d66101d13660046117d7565b610470565b005b6101d66105a5565b6102096101ee366004611801565b6009602052600090815260409020546001600160a01b031681565b6040516101ba919061181a565b61021e600381565b60405160ff90911681526020016101ba565b61024361023e366004611801565b610745565b6040519081526020016101ba565b6101d661025f36600461182e565b61075a565b61024360045481565b6101d661027b36600461182e565b61077c565b61024360065481565b61021e600181565b610243600080516020611df183398151915281565b6102b96102b436600461185a565b6107b4565b6040516101ba959493929190611875565b61021e6102d836600461185a565b610870565b61021e6102eb36600461185a565b60086020526000908152604090205460ff1681565b60025460ff166101ae565b6101d66103193660046118f8565b6108a2565b6102097f000000000000000000000000000000000000000000000000000000000000000081565b6101d6610353366004611913565b61095f565b6101ae61036636600461182e565b6109e3565b6101d661037936600461197d565b610a0c565b6101d661038c36600461185a565b610cab565b610243600081565b6102436201518081565b610243600080516020611dd183398151915281565b6101d66103c63660046119e3565b610e11565b61024360055481565b61021e600281565b6101d66103ea36600461182e565b611093565b6101d66103fd366004611801565b6110af565b61024360035481565b6101d6610419366004611801565b6111e1565b6101d661042c366004611a45565b6112dc565b6101d6611396565b60006001600160e01b03198216637965db0b60e01b148061046a57506301ffc9a760e01b6001600160e01b03198316145b92915050565b600080516020611df183398151915261048881611454565b6001600160a01b03831660009081526007602052604090206004015460ff166104c45760405163aba4733960e01b815260040160405180910390fd5b6001600160a01b038316600090815260076020526040812060020154908184116104ee57836104f0565b815b9050801561059e576001600160a01b03851660009081526007602052604081206002018054839290610523908490611a9c565b9091555061055d90506001600160a01b037f000000000000000000000000000000000000000000000000000000000000000016338361145e565b60405181815233906001600160a01b038716907fd87c3348a79019696e9b472cb0efe979015741dd3a1c95f43cc26dd1ace903c09060200160405180910390a35b5050505050565b6105ad6114b6565b336000908152600760205260409020600481015460ff166105e15760405163aba4733960e01b815260040160405180910390fd5b80600301546000036106065760405163777c843f60e11b815260040160405180910390fd5b60045481600301546106189190611aaf565b42101561063857604051635c940c6960e01b815260040160405180910390fd5b60028101548154600090815260096020908152604080832080546001600160a01b031916905533835260079091528120818155906106796001830182611743565b50600060028201819055600382018190556004909101805460ff199081169091553382526008602052604082208054909116905560058054916106bb83611ac2565b91905055506106c9336114e0565b8015610703576107036001600160a01b037f000000000000000000000000000000000000000000000000000000000000000016338361145e565b60405181815233907f0f5bb82176feb1b5e747e28471aa92156a04d9f3ab9f45f28e2d704232b93f759060200160405180910390a2505061074360018055565b565b60009081526020819052604090206001015490565b61076382610745565b61076c81611454565b6107768383611549565b50505050565b6001600160a01b03811633146107a55760405163334bd91960e11b815260040160405180910390fd5b6107af82826115db565b505050565b600760205260009081526040902080546001820180549192916107d690611ad9565b80601f016020809104026020016040519081016040528092919081815260200182805461080290611ad9565b801561084f5780601f106108245761010080835404028352916020019161084f565b820191906000526020600020905b81548152906001019060200180831161083257829003601f168201915b50505050600283015460038401546004909401549293909290915060ff1685565b6001600160a01b03811660009081526008602052604081205460ff168015610898578061089b565b60035b9392505050565b3360009081526007602052604090206004015460ff166108d55760405163aba4733960e01b815260040160405180910390fd5b600160ff821610806108ea5750600360ff8216115b1561090857604051636caa20b560e11b815260040160405180910390fd5b33600081815260086020908152604091829020805460ff191660ff861690811790915591519182527fc3f8f61911a1537261f77e2703626e158e299a98e341024ecaa26bbd1d884c6491015b60405180910390a250565b600080516020611dd183398151915261097781611454565b6201518082101561099b5760405163162908e360e11b815260040160405180910390fd5b6003839055600482905560408051848152602081018490527f0936b3616d5072fa8f7381ef8e7c35d39bed9ecfb2184e908a56027ad5c0b6bc910160405180910390a1505050565b6000918252602082815260408084206001600160a01b0393909316845291905290205460ff1690565b610a146114b6565b610a1c611646565b3360009081526007602052604090206004015460ff1615610a5057604051630ea075bf60e21b815260040160405180910390fd5b600354821015610a73576040516378de4a6960e11b815260040160405180910390fd5b6000839003610a955760405163ecd7b0d160e01b815260040160405180910390fd5b84610ab357604051630eda9c3d60e31b815260040160405180910390fd5b6000858152600960205260409020546001600160a01b031615610ae9576040516325aff6d160e21b815260040160405180910390fd5b600160ff82161080610afe5750600360ff8216115b15610b1c57604051636caa20b560e11b815260040160405180910390fd5b610b516001600160a01b037f00000000000000000000000000000000000000000000000000000000000000001633308561166a565b6040518060a0016040528086815260200185858080601f016020809104026020016040519081016040528093929190818152602001838380828437600092018290525093855250505060208083018690526040808401839052600160609094018490523383526007825290912083518155908301519091820190610bd59082611b85565b506040828101516002830155606083015160038301556080909201516004909101805491151560ff1992831617905560008781526009602090815283822080546001600160a01b03191633908117909155825260089052918220805460ff851692169190911790556005805491610c4b83611c3d565b9190505550610c59336114e0565b336001600160a01b03167fdc9ea4763a342b9202af77c38be387240b55f57b19f0fb3b106d92e4504ef3ea8686868686604051610c9a959493929190611c7f565b60405180910390a261059e60018055565b6000610cb681611454565b6001600160a01b03821660009081526007602052604090206004015460ff16610cf25760405163aba4733960e01b815260040160405180910390fd5b6001600160a01b03821660008181526007602081815260408084206002810154815486526009845291852080546001600160a01b03191690559484529190528183559190610d436001830182611743565b50600060028201819055600382018190556004909101805460ff199081169091556001600160a01b0385168252600860205260408220805490911690556005805491610d8e83611ac2565b9190505550610d9c836114e0565b8015610dd657610dd66001600160a01b037f000000000000000000000000000000000000000000000000000000000000000016848361145e565b60405133906001600160a01b038516907f0bdcf1d6f29aa87af8131cc81dcbb295fcf98d71cfcdc79cc5d965317bae1d0a90600090a3505050565b6000610e1c81611454565b6001600160a01b03861660009081526007602052604090206004015460ff1615610e5957604051630ea075bf60e21b815260040160405180910390fd5b6001600160a01b038616610e805760405163d92e233d60e01b815260040160405180910390fd5b6000839003610ea25760405163ecd7b0d160e01b815260040160405180910390fd5b84610ec057604051630eda9c3d60e31b815260040160405180910390fd5b6000858152600960205260409020546001600160a01b031615610ef6576040516325aff6d160e21b815260040160405180910390fd5b600160ff83161080610f0b5750600360ff8316115b15610f2957604051636caa20b560e11b815260040160405180910390fd5b6040518060a0016040528086815260200185858080601f016020809104026020016040519081016040528093929190818152602001838380828437600092018290525093855250505060208083018290526040808401839052600160609094018490526001600160a01b038b1683526007825290912083518155908301519091820190610fb69082611b85565b506040828101516002830155606083015160038301556080909201516004909101805491151560ff1992831617905560008781526009602090815283822080546001600160a01b038c166001600160a01b03199091168117909155825260089052918220805460ff86169216919091179055600580549161103683611c3d565b9190505550611044866114e0565b856001600160a01b03167f965f24bf9f0cce3f9c4b4e57cfd8e4e5f87dae1e2d7e0241dc304e5ef6d44ff0868686866040516110839493929190611cb4565b60405180910390a2505050505050565b61109c82610745565b6110a581611454565b61077683836115db565b6110b76114b6565b6110bf611646565b3360009081526007602052604090206004015460ff166110f25760405163aba4733960e01b815260040160405180910390fd5b806000036111135760405163162908e360e11b815260040160405180910390fd5b336000908152600760205260409020600301541561114457604051634b8cc7d360e11b815260040160405180910390fd5b6111796001600160a01b037f00000000000000000000000000000000000000000000000000000000000000001633308461166a565b336000908152600760205260408120600201805483929061119b908490611aaf565b909155505060405181815233907f7c717985ac273e663b7f3050f5b15a4388ff6ed952338954f650e2093e13937f9060200160405180910390a26111de60018055565b50565b3360009081526007602052604090206004015460ff166112145760405163aba4733960e01b815260040160405180910390fd5b8061123257604051630eda9c3d60e31b815260040160405180910390fd5b6000818152600960205260409020546001600160a01b031615611268576040516325aff6d160e21b815260040160405180910390fd5b336000818152600760208181526040808420805485526009835281852080546001600160a01b03199081169091558786528286208054909116871790559385905291815291849055518381527f89b7d0f06a831980c46ff90b16330e356aeda61bfb6eedf913498dd44c682e469101610954565b3360009081526007602052604090206004015460ff1661130f5760405163aba4733960e01b815260040160405180910390fd5b60008190036113315760405163ecd7b0d160e01b815260040160405180910390fd5b33600090815260076020526040902060010161134e828483611ce2565b50336001600160a01b03167ff07dbf3d77012f0b44fefb89300e81a4682a0955db1e819c834d2023583489cb838360405161138a929190611d9b565b60405180910390a25050565b3360009081526007602052604090206004015460ff166113c95760405163aba4733960e01b815260040160405180910390fd5b33600090815260076020526040902060030154156113fa57604051634b8cc7d360e11b815260040160405180910390fd5b3360008181526007602052604090204260039091018190556004547f828764c21e74c28710e19919735825aba966621c95cbd913f8ed65a2d298f48c916114419190611aaf565b60405190815260200160405180910390a2565b6111de81336116a3565b6107af83846001600160a01b031663a9059cbb8585604051602401611484929190611db7565b604051602081830303815290604052915060e01b6020820180516001600160e01b0383818316178352505050506116db565b6002600154036114d957604051633ee5aeb560e01b815260040160405180910390fd5b6002600155565b6006546040516001600160601b0319606084901b16602082015260340160408051601f198184030181529082905280516020909101208218600681905582917f6492b1eff1fc0d88b4168c0237c9f76ec9580852859bea032c43158c0e22112e90600090a35050565b600061155583836109e3565b6115d3576000838152602081815260408083206001600160a01b03861684529091529020805460ff1916600117905561158b3390565b6001600160a01b0316826001600160a01b0316847f2f8788117e7eff1d82e926ec794901d17c78024a50270940304540a733656f0d60405160405180910390a450600161046a565b50600061046a565b60006115e783836109e3565b156115d3576000838152602081815260408083206001600160a01b0386168085529252808320805460ff1916905551339286917ff6391f5c32d9c69d2a47ea670b442974b53935d1edc7fd64eb21e047a839171b9190a450600161046a565b60025460ff16156107435760405163d93c066560e01b815260040160405180910390fd5b6040516001600160a01b0384811660248301528381166044830152606482018390526107769186918216906323b872dd90608401611484565b6116ad82826109e3565b6116d757808260405163e2517d3f60e01b81526004016116ce929190611db7565b60405180910390fd5b5050565b600080602060008451602086016000885af1806116fe576040513d6000823e3d81fd5b50506000513d91508115611716578060011415611723565b6001600160a01b0384163b155b156107765783604051635274afe760e01b81526004016116ce919061181a565b50805461174f90611ad9565b6000825580601f1061175f575050565b601f0160209004906000526020600020908101906111de91905b8082111561178d5760008155600101611779565b5090565b6000602082840312156117a357600080fd5b81356001600160e01b03198116811461089b57600080fd5b80356001600160a01b03811681146117d257600080fd5b919050565b600080604083850312156117ea57600080fd5b6117f3836117bb565b946020939093013593505050565b60006020828403121561181357600080fd5b5035919050565b6001600160a01b0391909116815260200190565b6000806040838503121561184157600080fd5b82359150611851602084016117bb565b90509250929050565b60006020828403121561186c57600080fd5b61089b826117bb565b85815260a06020820152600085518060a084015260005b818110156118a957602081890181015160c086840101520161188c565b50600060c0828501015260c0601f19601f8301168401019150508460408301528360608301526118dd608083018415159052565b9695505050505050565b803560ff811681146117d257600080fd5b60006020828403121561190a57600080fd5b61089b826118e7565b6000806040838503121561192657600080fd5b50508035926020909101359150565b60008083601f84011261194757600080fd5b5081356001600160401b0381111561195e57600080fd5b60208301915083602082850101111561197657600080fd5b9250929050565b60008060008060006080868803121561199557600080fd5b8535945060208601356001600160401b038111156119b257600080fd5b6119be88828901611935565b909550935050604086013591506119d7606087016118e7565b90509295509295909350565b6000806000806000608086880312156119fb57600080fd5b611a04866117bb565b94506020860135935060408601356001600160401b03811115611a2657600080fd5b611a3288828901611935565b90945092506119d79050606087016118e7565b60008060208385031215611a5857600080fd5b82356001600160401b03811115611a6e57600080fd5b611a7a85828601611935565b90969095509350505050565b634e487b7160e01b600052601160045260246000fd5b8181038181111561046a5761046a611a86565b8082018082111561046a5761046a611a86565b600081611ad157611ad1611a86565b506000190190565b600181811c90821680611aed57607f821691505b602082108103611b0d57634e487b7160e01b600052602260045260246000fd5b50919050565b634e487b7160e01b600052604160045260246000fd5b601f8211156107af57806000526020600020601f840160051c81016020851015611b505750805b601f840160051c820191505b8181101561059e5760008155600101611b5c565b600019600383901b1c191660019190911b1790565b81516001600160401b03811115611b9e57611b9e611b13565b611bb281611bac8454611ad9565b84611b29565b6020601f821160018114611be05760008315611bce5750848201515b611bd88482611b70565b85555061059e565b600084815260208120601f198516915b82811015611c105787850151825560209485019460019092019101611bf0565b5084821015611c2e5786840151600019600387901b60f8161c191681555b50505050600190811b01905550565b600060018201611c4f57611c4f611a86565b5060010190565b81835281816020850137506000828201602090810191909152601f909101601f19169091010190565b858152608060208201526000611c99608083018688611c56565b905083604083015260ff831660608301529695505050505050565b848152606060208201526000611cce606083018587611c56565b905060ff8316604083015295945050505050565b6001600160401b03831115611cf957611cf9611b13565b611d0d83611d078354611ad9565b83611b29565b6000601f841160018114611d3b5760008515611d295750838201355b611d338682611b70565b84555061059e565b600083815260209020601f19861690835b82811015611d6c5786850135825560209485019460019092019101611d4c565b5086821015611d895760001960f88860031b161c19848701351681555b505060018560011b0183555050505050565b602081526000611daf602083018486611c56565b949350505050565b6001600160a01b0392909216825260208201526040019056fe82db594318110a04b6349ce48645aa69f0892751bc893d15e61d9e2b9c4630f512b42e8a160f6064dc959c6f251e3af0750ad213dbecf573b4710d67d6c28e39a26469706673582212200c9c5e3e1b7120289990f0fb64197233288831884014fc4a523e34eb3d38373964736f6c634300081c0033",
  "linkReferences": {},
  "deployedLinkReferences": {}
}