{
  "_format": "hh-sol-artifact-1",
  "contractName": "RelayerMulticall",
  "sourceName": "contracts/nox/RelayerMulticall.sol",
  "abi": [
    {
      "anonymous": false,
      "inputs": [
        {
          "indexed": true,
          "internalType": "uint256",
          "name": "index",
          "type": "uint256"
        },
        {
          "indexed": false,
          "internalType": "bool",
          "name": "success",
          "type": "bool"
        },
        {
          "indexed": false,
          "internalType": "bytes",
          "name": "returnData",
          "type": "bytes"
        }
      ],
      "name": "CallExecuted",
      "type": "event"
    },
    {
      "anonymous": false,
      "inputs": [
        {
          "indexed": true,
          "internalType": "uint256",
          "name": "index",
          "type": "uint256"
        },
        {
          "indexed": false,
          "internalType": "bytes",
          "name": "reason",
          "type": "bytes"
        }
      ],
      "name": "CallFailed",
      "type": "event"
    },
    {
      "inputs": [
        {
          "components": [
            {
              "internalType": "address",
              "name": "target",
              "type": "address"
            },
            {
              "internalType": "bytes",
              "name": "data",
              "type": "bytes"
            },
            {
              "internalType": "uint256",
              "name": "value",
              "type": "uint256"
            },
            {
              "internalType": "bool",
              "name": "requireSuccess",
              "type": "bool"
            }
          ],
          "internalType": "struct RelayerMulticall.Call[]",
          "name": "calls",
          "type": "tuple[]"
        }
      ],
      "name": "multicall",
      "outputs": [],
      "stateMutability": "payable",
      "type": "function"
    }
  ],
  "bytecode": "0x6080604052348015600f57600080fd5b506104eb8061001f6000396000f3fe60806040526004361061001e5760003560e01c8063cffb5cd614610023575b600080fd5b6100366100313660046102bf565b610038565b005b60005b8181101561020c573683838381811061005657610056610334565b9050602002810190610068919061034a565b905060008061007a602084018461036a565b6001600160a01b03166040840135610095602086018661039a565b6040516100a39291906103e7565b60006040518083038185875af1925050503d80600081146100e0576040519150601f19603f3d011682016040523d82523d6000602084013e6100e5565b606091505b5091509150811561011e578360008051602061049683398151915260018360405161011192919061043d565b60405180910390a2610201565b61012e6080840160608501610460565b1561019f578051156101435780518082602001fd5b60405162461bcd60e51b815260206004820152602660248201527f52656c617965724d756c746963616c6c3a20637269746963616c2063616c6c2060448201526519985a5b195960d21b60648201526084015b60405180910390fd5b837f5c0dee5d32a1e145396705da49c1e64a2b1d63387f78c2697100f655567f5de9826040516101cf9190610482565b60405180910390a2836000805160206104968339815191526000836040516101f892919061043d565b60405180910390a25b50505060010161003b565b504780156102ba57604051600090339083908381818185875af1925050503d8060008114610256576040519150601f19603f3d011682016040523d82523d6000602084013e61025b565b606091505b50509050806102b85760405162461bcd60e51b815260206004820152602360248201527f52656c617965724d756c746963616c6c3a2045544820726566756e64206661696044820152621b195960ea1b6064820152608401610196565b505b505050565b600080602083850312156102d257600080fd5b82356001600160401b038111156102e857600080fd5b8301601f810185136102f957600080fd5b80356001600160401b0381111561030f57600080fd5b8560208260051b840101111561032457600080fd5b6020919091019590945092505050565b634e487b7160e01b600052603260045260246000fd5b60008235607e1983360301811261036057600080fd5b9190910192915050565b60006020828403121561037c57600080fd5b81356001600160a01b038116811461039357600080fd5b9392505050565b6000808335601e198436030181126103b157600080fd5b8301803591506001600160401b038211156103cb57600080fd5b6020019150368190038213156103e057600080fd5b9250929050565b8183823760009101908152919050565b6000815180845260005b8181101561041d57602081850181015186830182015201610401565b506000602082860101526020601f19601f83011685010191505092915050565b821515815260406020820152600061045860408301846103f7565b949350505050565b60006020828403121561047257600080fd5b8135801515811461039357600080fd5b60208152600061039360208301846103f756fec844f5305195f29489ff13d35e268904b855970284ef0c8d85f1ce917be4cc74a2646970667358221220e0036f276794f8bd41cbf683c09fd63efaa1625de0350df44a49f8585cbf6e5f64736f6c634300081c0033",
  "linkReferences": {},
  "deployedLinkReferences": {}
}